:100000000C94070E0C942F0E0C942F0E0C942F0EA4
:100010000C942F0E0C942F0E0C942F0E0C942F0E6C
:100020000C942F0E0C942F0E0C94EC160C945E175F
:100030000C942F0E0C942F0E0C942F0E0C942F0E4C
:100040000C942F0E0C942F0E0C942F0E0C942F0E3C
:100050000C942F0E0C942F0E0C942F0E0C94D6197A
:100060000C942F0E0C942F0E0C942F0E0C942F0E1C
:100070000C942F0E0C942F0E0C942F0E0C942F0E0C
:100080000C942F0E0C942F0E0C942F0E0C942F0EFC
:100090000C942F0E0C942F0E0C942F0E0C942F0EEC
:1000A0000C942F0E0C942F0E0C942F0EF0F89C8EA7
:1000B0008783878E9CF8F00000FEFF030303030391
:1000C000070EFCF80000FEFF0303030303070EFC0A
:1000D000F80000FFFF00000000000000FFFF00002C
:1000E000FEFF8383838383C7EE7C380000F8FC0E19
:1000F00007030303070EFCF800003F7FE0C0808089
:10010000C0E07F3FFFFF01010101010101FFFF008E
:1001100000FFFF0C0C0C0C1C3E77E3C100007FFFBE
:10012000C0C0C0C0C0E0703F1F00001F3F70E0C0F3
:10013000C0C0E0703F1F00007FFFC1C1C1C1C1E36B
:10014000773E1C00001F3F70E0C0C0C0E0703F1F42
:10015000000000000001FFFF01000000D5F08D1439
:10016000A1C881CFD9F1AF2000804000000000007D
:10017000000000E0E0E0E0E0E0E00000000000005F
:100180000000000000000000000000E0E0E0E0E00F
:10019000000000000000000000000000000000005F
:1001A000000000000000000000C0C0C0000000000F
:1001B000000000000000000000000000000000003F
:1001C00000F8F8F8F8F8F8F8000000000000000067
:1001D000000000000000000000000000E0E0E0007F
:1001E000000000000000000000000000000000000F
:1001F0000000000F0F0F0F0F0F0F00000000000096
:1002000000000000000000000000000303030303DF
:1002100000000000000000000000000000000000DE
:1002200000000000000000000001010100000000CB
:1002300000000000000000000000000000000000BE
:100240000003030303030303000000000000000099
:10025000000000000000000000000000000000009E
:1002600000000000000000000000000000001C1C56
:100270001C00000000000000000000000000000062
:10028000000000000000000000000000000000006E
:10029000FCFE42424242C2A21C000000FCFE22229E
:1002A0002222020202000000020202FAFEFA020208
:1002B00002000000FCFE42424242C2A21C000000BA
:1002C000FCFE020202020202FC000000000000002C
:1002D0000000000000000000000000F8F8F8F8F846
:1002E000F8F800000000000000000000000000001E
:1002F000000000000000001F1F1F1F1F0000000063
:1003000000000000000000000000000000000000ED
:10031000000100000000000101000000F8FD45455B
:1003200045454545B9000000F8FCFC000100040407
:1003300004F4FCF4040504000000000101000000C6
:1003400000010101010101010000000000000000A6
:1003500000383838000000000000000303030303E6
:100360000303000000000000000000000000000087
:100370000000000000C0C0C0C0C0C0C0000000003D
:10038000000000000000000000070707000000E078
:10039000F018080808081810000000F0F90B0A0A05
:1003A0000A0A0AF2010000F0F90B0B08080810E035
:1003B00000010301F0F88888888808080800000018
:1003C000F0F8080808080888700000000000000025
:1003D000000000000000000000000000000000001D
:1003E000008080800000000000000000000000008D
:1003F00000000000001F1F1F1F1F1F1F0000000024
:1004000000000000000000000000000000000001EB
:1004100003060404040406020000000307040404A5
:10042000040404030000000307040404040402019C
:100430000000000003070484848484840400000016
:100440000307010101010306040000000000000091
:100450000000E0E0E00000000000000000000000FC
:100460000003030300000000000000000000000083
:10047000000000C0C0C0000000000000000000003C
:10048000000000000000F0F0F0F0F00000000000BC
:100490000000000000000000E0E0E0E0E0E0E0003C
:1004A000000000000000000000000000000000004C
:1004B000000000000000000F0F0F0F0F00000000F1
:1004C000000000000000000000000000000000002C
:1004D0000000000000000000000000000000E0E05C
:1004E000E0E0E0000000000000000000000000006C
:1004F00000000001010100000000000000000000F9
:1005000000000000000001010101010000000000E6
:1005100000000000000000000F0F0F0F0F0F0F0072
:1005200000000000000000000000000000000E0EAF
:100530000E000000000000000000000000000000AD
:100540000000000000000707070000000000000096
:100550000000000000000000000000000000030395
:1005600003030300000000000000001010000078EA
:1005700084B4027A6B37366A8478000000001894DD
:1005800092CAFFF91111F9FFCA929418000000787D
:1005900084B4027A6B37366A84780000000018D47D
:1005A000D26A3F39F1F1D997941414080000007809
:1005B00084B4027A6B37366A84780000000609102A
:1005C000101E21EFE9D79599000000000000007887
:1005D00084B4027A6B37366A84780000000609D04A
:1005E000D07E3923E7F9D39594080000000000F08D
:1005F000086804F4D66E6CD408F00000000030A83F
:10060000A5D5FEF22222F2FED5A4A830000000F803
:1006100024E4027A6B37366A847800000000C02335
:100620002212FE791111F97F0A0A0A0400000078EB
:1006300084B4027A6B37366A84780000000018941C
:1006400092CAFFF91111F9FFCA8A8A04000000005A
:1006500078846A36376B7A02B48478000000189484
:1006600092CAFFF91111F9FFCA9294180000000014
:1006700078846A36376B7A02B484780000000814F4
:10068000149497D9F1F1393F6AD2D41800000000D0
:1006900078846A36376B7A02B484780000000000F0
:1006A00000009995D7E9EF211E10100906000000FF
:1006B00078846A36376B7A02B484780000000000D0
:1006C000089495D3F9E723397ED0D00906000000BD
:1006D000F008D46C6ED6F4046808F000000030A86E
:1006E000A4D5FEF22222F2FED5A5A830000000001B
:1006F00078846A36376B7A02E424F8000000040A32
:100700000A0A7FF9111179FE122223C000000000AD
:1007100078846A36376B7A02B48478000000048AE1
:100720008ACAFFF91111F9FFCA9294180004080649
:100730000F0F0610100000000000F098F8FE98F867
:100740009EF800000000000000003C25FD3737FF48
:10075000253D0000000000000000F098F8FE98F829
:100760009EF800000000000000003C253DF7373FE8
:10077000E53D00000000FE028202FE0203F30302D8
:1007800002F202FE00007F4043407F40C0D1C850CB
:100790004851407F00000000F89EF898FEF898F05D
:1007A00000000000000000003D25FF3737FD253C1C
:1007B0000000000000000000F89EF898FEF898F095
:1007C00000000000000000003DE53F37F73D253CFC
:1007D000000000000000FE02F2020203F30302FE2A
:1007E000028202FE00007F40514850C8D1C0407FC5
:1007F0004043407F002010FFFFFFF7F777F7F7F740
:1008000077777F7F7F7FFFFFDFDFDF1F7F7F7FFBCC
:10081000FBFBFBF9FDFFFFFFFFFEFEFEEEEF8FFF90
:10082000FFFFFFFFFFFFFFFFFFFFEFEFEFCFDF9FB8
:10083000BFBEFEFEFEFFFF201000000080C0E0E013
:10084000E0E0E0E0E0E0E0E020C02020C0E0F0F008
:10085000F070E0C000000000000006010F1F1FFF45
:10086000FFFFFF3F3F3F3F3F3CF9FAF4F70F1F1FE9
:100870001F1E1F0F162424040200000080C0E0E0A9
:10088000E0E0E0E0E0E0E0E020C02020C0E0F0F0C8
:10089000F070E0C000000000000006010F1F1F3FC5
:1008A000FFFFFFFF3F3F3F3F3C39FAF4F7CF1F1FE9
:1008B0001F1E1F0F16242C100000000080C0E0E057
:1008C000E0E0E0E0E0E0E0E020C02020C0E0F0F088
:1008D000F070E0C000000000000006010F1F1FFFC5
:1008E000FFFFFF3F3F3F3F3F3CF9FAF4F70F1F1F69
:1008F0001F1E1F0F06040C10000000000000C0E0C7
:1009000070F0F0F0E0C02020C020E0E0E0E0E0E0A7
:10091000E0E0E0E0C08000000002042424160F1F85
:100920001E1F1F1F0FF7F4FAF93C3F3F3F3F3FFFE9
:10093000FFFFFF1F1F0F0106000000000000C0E0C6
:1009400070F0F0F0E0C02020C020E0E0E0E0E0E067
:10095000E0E0E0E0C08000000000102C24160F1F33
:100960001E1F1F1FCFF7F4FA393C3F3F3F3FFFFFE9
:10097000FFFF3F1F1F0F0106000000000000C0E046
:1009800070F0F0F0E0C02020C020E0E0E0E0E0E027
:10099000E0E0E0E0C08000000000100C04060F1F43
:1009A0001E1F1F1F0FF7F4FAF93C3F3F3F3F3FFF69
:1009B000FFFFFF1F1F0F0106000808FFFF7E7E3CA0
:1009C0003C181818183C3C7E7EFFFF101000804039
:1009D00040C0C0C0C0C0C0F8E4C04080800001007A
:1009E000000FFB8B0B0DFF870B03030303008040FD
:1009F00040C0C0C0C0C0C0F8E4C04080800001005A
:100A0000000F1BEB8B0D1FE78B03030303008040DC
:100A100040C0C0C0C0C0C0F8E4C040808000010039
:100A200000EF9B0B0BED9F070B030303038080403C
:100A3000C0E4F8C0C0C0C0C0C04040800003030391
:100A4000030B87FF0D0B8BFB0F0000010080804024
:100A5000C0E4F8C0C0C0C0C0C04040800003030371
:100A6000038BE71F0D8BEB1B0F0000010080804004
:100A7000C0E4F8C0C0C0C0C0C04040800003030351
:100A8000030B079FED0B0B9BEF0000010008080014
:100A90002418423C81423C3C42813C4218240020C4
:100AA0001000000000000000000000000000000036
:100AB00000000000000080800000000000808080B6
:100AC0000000F0F8FCF4F4F4FCFCFCF4F4F4FCFC9E
:100AD000FCF4F4F4FA73877C7F7F7F7F7F7F3E1F77
:100AE0000000000000000000000000000000000006
:100AF00000000000000000000000000000000000F6
:100B0000000080C0E0A0A0A0E0E0E0A0A0A0E0E0A5
:100B1000E0A0A0A0D0983CE4F8F8F8F8F8FCF4FCC9
:100B200000000000000000000000000000000000C5
:100B30000000000000008080000080C0F0F0B07075
:100B40000000F0F8FCF4F4F4FCFCFCF4F4F4FCFC1D
:100B5000FCF4F4F4FA7387FCFFFFFFFFF7E3C180B6
:100B60000000808080000000000080800000000005
:100B70000000000000000000000000000000000075
:100B800000001F3E7F7F7F7F7F7F7C8773FAF4F4B6
:100B9000F4FCFCFCF4F4F4FCFCFCF4F4F4FCF8F0DD
:100BA0000000000000000000000000000000000045
:100BB0000000000000000000000000000000000035
:100BC0000000FCF4FCF8F8F8F8F8E43C98D0A0A099
:100BD000A0E0E0E0A0A0A0E0E0E0A0A0A0E0C08055
:100BE000000070B0F0F0C0800000808000000000C5
:100BF00000000000000000000000000000000000F5
:100C0000000080C1E3F7FFFFFFFFFC8773FAF4F4F5
:100C1000F4FCFCFCF4F4F4FCFCFCF4F4F4FCF8F05C
:100C2000000408030F0F03101000001C244890203C
:100C3000408E9FFF9B0E088870000020202010111E
:100C40000A8C7D1F718F0000000000000000000072
:100C5000000E9FFF9B0E08887000001010100808FF
:100C6000088F7F1F718F000000000000000000004F
:100C7000000E9FFF9B0E088870000020202010109F
:100C8000088F7F1F79932428300000000000000E99
:100C90009FFF9B0E08887000001010100808088F36
:100CA0007F1F718F00000000000000000000000E98
:100CB0009FFF9B8E08887000000808080404088FB6
:100CC0007F1F7C880912120C007088080E9BFF9F02
:100CD0008E40209048241C00000000008F711F7D72
:100CE0008C0A111020202000007088080E9BFF9FA6
:100CF0000E00000000000000000000008F711F7F48
:100D00008F08080810101000007088080E9BFF9FC5
:100D10000E000000000000000030282493791F7F9F
:100D20008F081010202020000000007088080E9B03
:100D3000FF9F0E00000000000000000000008F7107
:100D40001F7F8F08080810101000007088088E9B05
:100D5000FF9F0E000000000000000C121209887CAA
:100D60001F7F8F0804040808081010070915121CBB
:100D70002040000040201C12150907E090A84838C8
:100D80000402000002043848A890E010100040C09F
:100D90004040404040404040E0C04080800000FF74
:100DA000F01010101010F0FC03030303030040C008
:100DB0004040404040404040E0C040808000001F34
:100DC000F0F01010101010FCE30303030300000008
:100DD000000000E01F5E5A7C5C40C0C000000000C4
:100DE000000010FFF011F1FF0101010100000000FF
:100DF000000000E01F5E5A7C5C40C0000000000064
:100E0000000010FFF011F1FF01010100008080409F
:100E1000C0E04040404040404040C0400003030329
:100E20000303FCF01010101010F0FF000080804051
:100E3000C0E04040404040404040C0400003030309
:100E400003E3FC1010101010F0F01F000000C0C0F1
:100E5000405C7C5A5E1FE0000000000000000101C1
:100E60000101FFF111F0FF1000000000000000C0C0
:100E7000405C7C5A5E1FE0000000000000000001A2
:100E80000101FFF111F0FF10000000000004080F45
:100E90000F090909090F0F00FEFEFEFEFEFEFEFE11
:100EA000FEFEFEFEFEFEFEFE7E7EFEFEFEFEFEFE62
:100EB000FEFEFEFEFEFEFEFEFEFCF806FEFEFEFE52
:100EC000FEFEFEFEFEFEF0F0F0F0F0F0F0F0F0F0CE
:100ED000F0F0F0F0F0F0F0F0F0F0F0F0F0F0F0F012
:100EE000FEFEFEFEFEFEFEFEFEFEFEFEFEFEFEFE22
:100EF000FE7E1EC6E08E3E7EFEC6D692BAAABAAA74
:100F000092D6467E7E3EBEBEBE9EDEDEDEDEDEDEED
:100F1000DEDEDEDE9E3E0000FFFFFFFFFFFFFFFE86
:100F2000C0C0C0F8F8C0C0C0F8F8F9F9FFFFFFFF73
:100F3000FFFFFFFFFFFF7F3FBF9FC3D8DFDFDFDF84
:100F4000DFDFDFDFDFDFDFDF9FBF3F3F3F7F7F7F11
:100F5000FFFFFFFFFFFFFFFFFFFFFFFFFFE30000BB
:100F600000E3FFFFFFFFFFFFFFFFFFFFFFFF3F8FDC
:100F7000E3FCFFFFFFFFFFFEFEFEFEFCFDFDFCFEAF
:100F8000FEFEFEFFFFFFFFFFFFFFFFFFFFFFFFFF74
:100F9000FFFFFFFFFF000000F7F7F7F7F7E7EFEFBE
:100FA000EFEFEFEFE7F7F7F7F7F7F7F7F7F7F7F701
:100FB000F3FBFBF9FCFEFEFFFFFFFFFFFFFFFFFF60
:100FC000FF7F1FCFE7F7F3F9FCFEFFFFFFFFFFFEF8
:100FD000FEFEFCFDFBF3E7EFDF3F7FFFFFFFFF7F40
:100FE0007F3FBFBF9FDFDFCFEFE7F7F3F9FCFEFFE7
:100FF000FFFFFFFFFFFFFFFFFFFFFFFFFFFFFFFF01
:10100000FFFFFFFFFFFFFFFFFFFF7F7F3FBF9FDF70
:10101000CFCFE7F7F3F800001F1F1FFFFFFFFFFF11
:10102000FFFFFFFFFFFFFFFFFFFFFFFFFFFFFFFFD0
:10103000FFFFFFFFFFFFFFFFFFFFFFFFFFFFFFFFC0
:1010400001FEFFFFFFFFFFFFFF9F07079FFFFFFF5F
:10105000FFFFFFFFFFFFFFFFFFFFFEF0863EFEFFEB
:10106000FFFFFFFFFFFFFFFFFFFFFFFFFF7F7F7F10
:101070007F3FBFBF9FDFDFCFEFEFE7F7F7F7F3FB70
:10108000FB7B391D1D1D1DBD3C3EFEFFFFFFFFFF0D
:10109000FFFFFFFFFFFF0000F0F0F0FFFFFFFFFF8B
:1010A000FFFFFFFFFFFFFFFFFFFFFFFFFFFFFFFF50
:1010B000FFFFFFFFFFFFFFFFFFFFFFFFFFFFFFFF40
:1010C000FCC31FFFFFFFFBF1E0F1C0C0F1E0F1FB4B
:1010D000FFFFFFFFFFFFFFFFFFFFFFFFFF00FF7F9F
:1010E0003F9FCFEFF7F3FBF9FDFDFCFEFEFEFFFF98
:1010F000FFFFFFFFFFFFFFFFFFFFFFF9F3E7EFEF4A
:10110000E7F01808000000030100073FFFFFFFFFA2
:10111000FFFFFFFFFFFF0000FBFBFBFBFBFDFEFEF5
:10112000FEFEFEFEFEFEFEFEFEFCFDFDFDFBFBFBED
:10113000FBFBFBF3F7F7F7F7F7E7EFEFEFEFEFEF77
:10114000EFCFDED8B3AF9F3F3F7FFFFFFFFFFFFF33
:10115000FFFFFFFFFF7F7F7F3F9FCFE7FBF8FDFE95
:10116000FFFFFFFFFFFFFFFFFFFFFFFFFFFFFFFF8F
:10117000FFFFFFFFFFFFFFFFFFFFFFFFFFFFFFFF7F
:10118000FFFFF87060602080E0E0F0FCFFFFFFFFF1
:10119000FFFFFFFFFFFF0000FFFFFFFFFFFFFFFF5D
:1011A000FFFFFF7F3F1F0F0F0F0F0F0F0F0F0F1FBF
:1011B0003F3F1F0F1F1F3F7FFFFFFFFFFFFFFFFF8F
:1011C000FFFFFFFFFFFFFF00FFFEFEFEFCFDFDFD3A
:1011D000FDFDFCFEFEFEFFFFF8E39F3FFFFFFFFF6C
:1011E000FFFFFFFFFFFF7F9FDF6FEF6FDF9F7FFF3F
:1011F000FFFFFFFFFFFFFFFFFFFFFFFFFFFFFFFFFF
:10120000FFFFFFFFFFFFFFFFFFFFFFFFFFFFFFFFEE
:10121000FFFFFFFFFFFF00007F7F7F7F7F7F7F7FDC
:101220007F797E7E606060787878787878786060A2
:10123000607E7C7C7C7C7C7E7F7F7F7F7F7F7F3F2E
:101240001F5F6F6773797C7E7F7F7F7F7F7F7F7F6C
:101250007F7F7F7F7F7F7F7F7F7F7F7E7C71674FF8
:101260001F3F7F7F7F7F7E09731775176B197E7F06
:101270007F7F7F7F7F7F7F7F7F7F7F7F7F7F7F7F7E
:101280007F7F7F7F7F7F7F7F7F7F7F7F7F7F7F7F6E
:101290007F7F7F7F7F7F0000000000000000000054
:1012A000000000008080808080808080808080803E
:1012B000808080808080808080808080808080802E
:1012C000808000000000000000000000000000001E
:1012D000000000000000000000000000000000000E
:1012E00000000000000000000000000000000000FE
:1012F00000000000000000000000000000000000EE
:1013000000000000000000000000000000000000DD
:1013100000000000000000000000000000000000CD
:1013200000000000FF0000000000000000000000BE
:1013300000000000000000000000000000000000AD
:1013400000FF00000000000000000000000000009E
:10135000000000000000000000000000000000008D
:10136000000000000000000000000000000000007D
:10137000000000000000000000000000000000006D
:10138000000000000000000000000000000000005D
:10139000000000000000000000000000000000004D
:1013A000000000000302020202020202020202FE28
:1013B00000000000000000FE02020202020202021F
:1013C00002030000FE0202725252DE0000FE020220
:1013D000E222223E0000FE02FE80FE02FE0000FE2F
:1013E00002E648902040FE02FE0000FE02020202D9
:1013F0000202FE00000000000000000000000000EB
:1014000000000000000000000000000000000000DC
:1014100000000000000000000000000000000000CC
:101420000000000000000000000000000000001F9D
:10143000101010101010101F00000000000000001D
:10144000000000003F20202725253D00003F2020F0
:101450002724243C00003F203E023E203F00003F66
:10146000203F000001023D203F00003F20202020BF
:1014700020203F00000000000000000000000000ED
:10148000000000000000000000000000000000005C
:10149000000000000000000000000000000000004C
:1014A00000000000F01020408000000000000080DC
:1014B000402010F0000000000000000000000000CC
:1014C000000000000000000000000000000000001C
:1014D000000000000000000000000000000000000C
:1014E00000000000000000000000000000000000FC
:1014F00000000000000000000000000000000000EC
:1015000000000000000000000000000000000000DB
:1015100000000000000000000000000000000000CB
:1015200000000000FF00FE040811224444221108BC
:1015300004FE00FF0000FF0101010101FF0000FFA8
:1015400001F324489020FF01FF0000FF018F086491
:1015500092090507000000FF0101B9A9A9EF0000E9
:101560000305091224C808C8241209050300000055
:10157000000000000000000000000000000000006B
:10158000000000000000000000000000000000005B
:10159000000000000000000000000000000000004B
:1015A000000000001F101F000000000000000000ED
:1015B000001F101F00001F10101010101F00001F30
:1015C000101F000000011E101F00001F101F01024D
:1015D000040912141800001F10101312121E00002C
:1015E00000000000001F101F0000000000000000AD
:1015F00000000000000000000000000000000000EB
:1016000000000000000000000000000000000000DA
:1016100000000000000000000000000000000000CA
:1016200000000000000000000000000000000000BA
:1016300000000000000000000000000000000000AA
:10164000000000000000000000000000000000009A
:10165000000000000000000000000000000000008A
:10166000000000000000000000000000000000007A
:10167000000000000000000000000000000000006A
:10168000000000000000000000000000000000005A
:101690000000000000000000000000003E5B4F5B07
:1016A0003E3E6B4F6B3E1C3E7C3E1C183C7E3C1805
:1016B0001C577D571C1C5E7F5E1C00183C1800FFE9
:1016C000E7C3E7FF0018241800FFE7DBE7FF304817
:1016D0003A060E2629792926407F050507407F0511
:1016E000253F5A3CE73C5A7F3E1C1C08081C1C3E08
:1016F0007F14227F22145F5F005F5F06097F017FF6
:10170000006689956A606060606094A2FFA2940898
:10171000047E040810207E201008082A1C08081CDB
:101720002A08081E101010100C1E0C1E0C30383E1B
:101730003830060E3E0E06000000000000005F007C
:10174000000007000700147F147F14242A7F2A1248
:10175000231308646236495620500008070300002E
:101760001C2241000041221C002A1C7F1C2A080860
:101770003E08080080703000080808080800006073
:10178000600020100804023E5149453E00427F405F
:101790000072494949462141494D331814127F10BE
:1017A00027454545393C4A49493141211109073608
:1017B00049494936464949291E00001400000040A5
:1017C000340000000814224114141414140041229F
:1017D000140802015909063E415D594E7C1211124E
:1017E0007C7F494949363E414141227F4141413E4A
:1017F0007F494949417F090909013E414151737FB0
:101800000808087F00417F41002040413F017F08D8
:101810001422417F404040407F021C027F7F040829
:10182000107F3E4141413E7F090909063E41512159
:101830005E7F09192946264949493203017F010380
:101840003F4040403F1F2040201F3F4038403F6303
:101850001408146303047804036159494D43007F5D
:101860004141410204081020004141417F0402012E
:1018700002044040404040000307080020545478D0
:10188000407F284444383844444428384444287F1E
:10189000385454541800087E090218A4A49C787F78
:1018A0000804047800447D40002040403D007F1043
:1018B00028440000417F40007C047804787C0804C0
:1018C00004783844444438FC182424181824241874
:1018D000FC7C08040408485454542404043F442461
:1018E0003C4040207C1C2040201C3C4030403C447C
:1018F000281028444C9090907C4464544C44000838
:101900003641000000770000004136080002010265
:1019100004023C2623263C1EA1A161123A4040202D
:101920007A385454555921555579412154547841A8
:10193000215554784020545579400C1E527212396A
:101940005555555939545454593955545458000023
:10195000457C410002457D420001457C40F0292440
:1019600029F0F0282528F07C545545002054547C5B
:10197000547C0A097F493249494932324848483241
:10198000324A4848303A4141217A3A424020780070
:101990009DA0A07D39444444393D4040403D3C2415
:1019A000FF2424487E4943662B2FFC2F2BFF092957
:1019B000F620C0887E090320545479410000447DFC
:1019C000413048484A32384040227A007A0A0A7246
:1019D0007D0D19317D2629292F28262929292630F0
:1019E000484D4020380808080808080808382F1013
:1019F000C8ACBA2F102834FA00007B000008142A63
:101A0000142222142A14089500220095AA005500D9
:101A1000AAAA55AA55AA000000FF00101010FF0046
:101A2000141414FF001010FF00FF1010F010F01439
:101A30001414FC001414F700FF0000FF00FF14143E
:101A4000F404FC141417101F10101F101F1414148A
:101A50001F00101010F0000000001F101010101FC9
:101A600010101010F010000000FF101010101010D7
:101A7000101010FF10000000FF140000FF00FF0016
:101A8000001F10170000FC04F4141417101714148E
:101A9000F404F40000FF00F714141414141414F7E1
:101AA00000F7141414171410101F101F141414F43A
:101AB000141010F010F000001F101F0000001F1481
:101AC000000000FC140000F010F01010FF10FF14D4
:101AD0001414FF141010101F00000000F010FFFF7E
:101AE000FFFFFFF0F0F0F0F0FFFFFF00000000004C
:101AF000FFFF0F0F0F0F0F38444438447C2A2A3E53
:101B0000147E02020606027E027E0263554941638C
:101B10003844443C04407E201E2006027E02029986
:101B2000A5E7A5991C2A492A1C4C7201724C304A1F
:101B30004D4D303048784830BC625A463D3E4949A8
:101B400049007E0101017E2A2A2A2A2A44445F4450
:101B50004440514A444040444A51400000FF010380
:101B6000E080FF000008086B6B083612362436064A
:101B70000F090F0600001818000000101000304078
:101B8000FF0101001F01011E00191D1712003C3C3E
:101B90003C3C0000000000080B00020202010009AA
:101BA00004000001020200000524001001052401C8
:101BB0000101042402060524060001070581031023
:101BC000004009040100020A00000007050202406B
:101BD000000007058302400000040309041201000D
:101BE00002EF02014041233680000101020301415E
:101BF000726475696E6F204C4C4300417264756964
:101C00006E6F204C656F6E6172646F00A5291124A0
:101C10001FBECFEFDAE0DEBFCDBF11E0A0E0B1E044
:101C2000E8E6F5E502C005900D92A83EB107D9F7A8
:101C300027E0A8EEB1E001C01D92AC36B207E1F793
:101C40001EE0C7E0DEE004C02197FE010E94A72A43
:101C5000C630D107C9F70E94201A0C94B22A0C94FE
:101C60000000CF92DF92EF92FF920F931F93CF93DA
:101C7000DF936C017A018B01C0E0D0E0CE15DF0567
:101C800081F0D8016D918D01D601ED91FC9101900B
:101C9000F081E02DC6010995892B11F02196EECF38
:101CA0007E01C701DF91CF911F910F91FF90EF90BF
:101CB000DF90CF9008950895089580E090E0089512
:101CC0000E94AD2A4F925F926F927F928F929F9265
:101CD000AF92BF92CF92DF92EF92FF920F931F933A
:101CE000CF93DF9300D000D0CDB7DEB7DC01390150
:101CF0002C2DA02EB12CC5018A0F9B1F181619067A
:101D00000CF0AEC1A038B1050CF0AAC1FB01EE0D7C
:101D1000F11D1E161F060CF0A3C1603471050CF0F6
:101D20009FC14115510509F49BC1362F3770F32E21
:101D3000FB0177FD379633E0F595E7953A95E1F7A6
:101D40003E2F77FF04C0FF2011F03FEF3E0FB7FF9B
:101D500005C0EE27FF27EA1BFB0B02C0E0E0F0E026
:101D6000803891051CF090E89A1B01C0902F9E1BB3
:101D7000632F032E000C770B3F3F1CF4162F10959A
:101D800001C010E0DD24D3948E2D877009F4D12C8E
:101D9000E694E694E694ED0C6E0D711D69307105C4
:101DA0001CF088E0E82EE31AE11A310F60E83603F0
:101DB000A00DB11D1124AE0FBF1F019FE00DF11D3D
:101DC00011244E0F5F1F61E070E04B010F2C02C029
:101DD000880C991C0A94E2F7233009F4FFC0B8F488
:101DE000213009F4B3C0223009F03AC18FEF889D49
:101DF0008001899D100D1124009510951A83098387
:101E00002A81FD01E257FD4F2F01E30E29C02A3F31
:101E1000D1F12B3F09F024C1FD01E257FD4F6F01C5
:101E2000E30E82C08491889D6001899DD00C1124AD
:101E3000DC82CB8237FD05C0DB018C918023C82A70
:101E4000CC92F11013C031966F5F7F4F8E2F841BA1
:101E5000891740F33F5F4A0D5B1DB0E84B0E511CE4
:101E60003E1509F4FDC0B201FA01F0CF37305CF73E
:101E70006B01B0E8CB0ED11CD6018C9182237C8003
:101E800087298C93E0CFFD01E257FD4F6F01E30EF0
:101E90003E1509F4E5C08601FA018E2F841B8917CF
:101EA000F0F48491889DB001899D700D11247C838C
:101EB0006B8337FD04C0D8018C91682B6C93FF2095
:101EC00051F0373044F4B80160587F4FDB012C915A
:101ED0008C81822B8C9331960F5F1F4FDECF3F5F3B
:101EE0004A0D5B1DB0E8CB0ED11CD2CF8491889DEA
:101EF0008001899D100D11241C830B8337FD05C0C3
:101F00000095DB018C9108230C93F11013C03196DE
:101F10006F5F7F4F8E2F841B891740F33F5F4A0D01
:101F20005B1DB0E8CB0ED11C3E1509F499C0B6017B
:101F3000FA01F0CF37305CF78B0100581F4F8C81CE
:101F40008095D8012C9182238C93E1CFB3016E0F41
:101F50007F1FA257BD4FE30E3E1509F481C08D01CE
:101F6000C12CD12CC91690F5FB01EC0DFD1DE4919F
:101F7000E89D3001E99D700C1124609470947A8280
:101F80006982FA01EC0DFD1DE491E89D2001E99DB7
:101F9000500C11245C824B8237FD05C0F801808112
:101FA000682246284082FF2059F037304CF4F8016F
:101FB000E058FF4F20818A8182232C81822B8083ED
:101FC000FFEFCF1ADF0A0F5F1F4FCCCF3F5F4A0DE5
:101FD0005B1D6A0D7B1DA058BF4FBECFC92ED12CF3
:101FE000E40FF51FA257BD4F00E810E00C191D09C2
:101FF000AC18BD08A501440F551F792F2E2D792E41
:10200000CF93DF93ED01EF96EF962296A590C590C2
:10201000FF2059F0A89C5001C89C600137302CF477
:10202000E880D094ED20EB28E99233233AF0EC904D
:10203000C094EC20EA28ED920C941F1011967A952A
:1020400029F72A9551F0772D33951124E40FF11DCE
:10205000A00FB11DC00FD11DD9CFDF91CF91112499
:102060000F900F900F900F90DF91CF911F910F91D4
:10207000FF90EF90DF90CF90BF90AF909F908F90A8
:102080007F906F905F904F900895CF92EF920F9353
:10209000CF93DF934115510539F1FA01049131963F
:1020A000E4904E5F5F4F2223C9F0A1E0B0E03E2DE7
:1020B000377011F4A0E0B0E03E2D36953695369598
:1020C000A30FB11D0A9FE0010B9FD00D11242C9F7F
:1020D000F0012D9FF00D11244E0F5F1F2AEFC22E2D
:1020E00020E030E00E94620EDF91CF910F91EF90DF
:1020F000CF9008952D9A0895BC0180E090E00C9453
:102100009C198FB18095807F669B88601C9B846042
:1021100008950C945B2A80389105B8F460347105F9
:10212000A0F490E121E061FD24E060FD220F62FD5A
:102130002295687F969FD0011124A80FA257BD4F0A
:102140008C91822B40FF82278C9308952F923F928F
:102150004F925F926F927F928F929F92AF92BF92B7
:10216000CF92DF92EF92FF920F931F93CF93DF9363
:10217000CDB7DEB727970FB6F894DEBF0FBECDBF41
:102180009F838E836A30A1F4DC0155962C9155977C
:1021900051968D919C915297B8E02B9F800D911D87
:1021A0001124EE81FF81928B818B108A1786ADC03E
:1021B0006D3009F4AAC0AE81BF811F960D911C91AC
:1021C000509700381105BCF0EE81FF812589422F20
:1021D00050E087859089F6E02F9F800D911D112496
:1021E000AE81BF8150969C938E931F9756962C91EB
:1021F000211175C08AC0EE81FF8181889288F0E448
:102200008F1691040CF7AE81BF8155963C90C801A2
:10221000B5E03B9E800D911D112418161906A4F6F9
:10222000432C512CC401E8E03E9E800D911D1124E9
:10223000181619064CF6AE81BF815496BC91BC832A
:10224000EE81FF81F389FD8325E0629FB0011124B7
:10225000CB018956994E3C011982F3012490F981F2
:10226000F53009F4212C640128E02B8320FE03C003
:102270003D813A8302C08C818A839A81911104C086
:10228000AC81BD81AB17B9F078018E2D801B831511
:1022900090F456018A2D8C19831548F44A81B501B2
:1022A000C7010E948B10EFEFAE1ABE0AF3CFFFEF0B
:1022B000EF1AFF0AEACF26942B8121502B83C40CFE
:1022C000D51C2111D3CF39813F5F3983040D151DF2
:1022D000C30101963C01363009F0BFCF75CF6AEFDC
:1022E00064039001659F300D112420583F4F28173B
:1022F00039075CF4AE81BF81ED91FC91119701909B
:10230000F081E02D6AE0CD01099581E090E027960B
:102310000FB6F894DEBF0FBECDBFDF91CF911F91F6
:102320000F91FF90EF90DF90CF90BF90AF909F9074
:102330008F907F906F905F904F903F902F90089577
:10234000FC01918547818081992399F0840F8083D6
:10235000528190E020E830E0251B3109241B31092F
:10236000821793077CF080E8851B8083118681E0CB
:1023700008C0841B481710F480830895108281E000
:102380008187808708954F925F927F928F929F926C
:10239000AF92BF92CF92DF92EF92FF920F931F9373
:1023A000CF93DF93CDB7DEB765970FB6F894DEBF56
:1023B0000FBECDBF488B598B6A8B7B8B8C8B9D8BD3
:1023C00086E0E0EDF6E0DE01119601900D928A952F
:1023D000E1F786E0FE013196DE01179601900D923D
:1023E0008A95E1F7E888F9882A893B894D898F81A8
:1023F00098855C896701C50ED11C8C159D0574F507
:102400005B85850F911DE816F90644F589859A8547
:10241000B901640F711D8617970704F55C85850F58
:10242000911D28173907D4F48091E50681110CC05D
:1024300081E08093E5068091DA069091DB060297B1
:102440009093DB068093DA068091DA069091DB06A2
:10245000181619061CF081E08093E9061D861E8679
:102460001F8689EE482E81E0582E8E01035F1F4F94
:102470009DE0892E92E0992EB801F20180E0590189
:10248000A40EB11C91E04285411116C040815181DA
:102490004C155D058CF47480470D511DE416F5064E
:1024A0005CF4428153814A155B0534F47580470D15
:1024B000511D2417350764F13C966F5F7F4F8E16D0
:1024C0009F0609F791E0D8012D918D01222311F08B
:1024D000F2019287FCE04F0E511C2DE0421622E0E3
:1024E000520689F765960FB6F894DEBF0FBECDBFD2
:1024F000DF91CF911F910F91FF90EF90DF90CF90E0
:10250000BF90AF909F908F907F905F904F90089575
:102510004681840FDB019C93CFCF6F927F928F9285
:102520009F92AF92BF92CF92DF92EF92FF920F9362
:102530001F93CF93DF93CDB7DEB76B970FB6F894A9
:10254000DEBF0FBECDBF198E1A8E1B8E0DE012E0BE
:102550006E0129E1C20ED11CB601C801FF24F3941B
:1025600020E8A22EB12C2CE0FC01DE011196019096
:102570000D922A95E1F7DC011A962C911A972111F8
:102580006BC04D915C9111971696EC90169717962B
:102590009C90179719968C9026E0E0EDF6E0DE010E
:1025A0001D9601900D922A95E1F726E0FE013D96D9
:1025B000DE01539601900D922A95E1F72B893C8913
:1025C000ED813A016E0E711C261537050CF074C0B2
:1025D000EF892E0F311D421753070CF06DC0EB81B0
:1025E000FC812D893E89AE813F016A0E711C261542
:1025F00037050CF061C0A88D2A0F311DE217F307D3
:102600000CF05AC02091E50621110CC0F092E506AD
:102610002091DA063091DB062E1931093093DB0662
:102620002093DA062091DA063091DB0612161306A3
:1026300014F0F092E906DB01FC929A013A832983B7
:10264000EF8298868A861B862CE0FE013196DC019B
:1026500001900D922A95E1F70C966F5F7F4F22E073
:102660008133920709F07FCF8091E80191E0D60194
:102670002D916D01222319F0F801928780E0045F0B
:102680001F4FF2E001331F0791F78093E8016B962B
:102690000FB6F894DEBF0FBECDBFDF91CF911F9173
:1026A0000F91FF90EF90DF90CF90BF90AF909F90F1
:1026B0008F907F906F900895292D30E02417350773
:1026C00034F4F501E21BF30B4E175F071CF0FB011E
:1026D000F082B3CF882019F0240F351FAFCF3A0115
:1026E000621A730A9301AACF20918D02211103C0AF
:1026F0008FEF9FEF08955FB7F89422E02093E900F1
:102700002091F20030E01216130614F421E030E0BC
:10271000422FFC0184E6415038F0289880938C02C7
:102720009091F1009193F7CF2115310521F080911F
:10273000F200882319F05FBFC90108958BE68093EA
:10274000E800F9CF2FB7F89483E08093E9009091E7
:10275000E800892F807295FF04C09091F20080E418
:10276000891B2FBF0895CF93DF931F92CDB7DEB79C
:102770006983DC01ED91FC910280F381E02D41E061
:1027800050E0BE016F5F7F4F09950F90DF91CF91B1
:10279000089583E08093E9008091F200882319F086
:1027A0008AE38093E80008950E94A21390E00895C0
:1027B000CF93DF931F92CDB7DEB7FC01848595855B
:1027C00097FD05C02FEF3FEF358724870BC0CE0163
:1027D00001960E947413019719F4898190E002C058
:1027E0008FEF9FEF0F90DF91CF9108950F931F937D
:1027F000CF93DF931F92CDB7DEB78C01FC018485A8
:10280000958597FF0EC0CE0101960E947413019723
:1028100019F4898190E002C08FEF9FEFF80195874E
:102820008487F801848595850F90DF91CF911F9162
:102830000F910895FC018485958597FD0BC09FB786
:10284000F89482E08093E9008091F2009FBF90E0CD
:10285000019608959FB7F89482E08093E9008091F3
:10286000F2009FBF90E008958F929F92AF92BF9227
:10287000CF92DF92EF92FF920F931F93CF93DF934C
:102880006C017B018A0180910801882309F45CC0F6
:1028900080918D02882309F457C080918B0280FFBC
:1028A00005C08091E00082608093E000E801B12CD7
:1028B0008AEFA82E93E0892E2AE3922E209711F416
:1028C000BB20D9F10E94A21381110AC0AA94AA20A8
:1028D000D9F161E070E080E090E00E949C19EECFB9
:1028E000282F30E0C217D3070CF48C2F9FB7F89431
:1028F0008092E9002091E80025FF1DC0282F30E0DC
:10290000C21BD30BF701815020F041914093F1009D
:10291000FACFE20EF31EBB2019F09092E8000AC035
:102920008091E80085FD07C09092E800BB24B39435
:10293000209709F0B12C9FBFC1CF5D9884E68093AA
:102940008A021016110644F081E090E0F6019383AC
:10295000828380E090E001C0C801DF91CF911F9198
:102960000F91FF90EF90DF90CF90BF90AF909F902E
:102970008F9008952F923F924F925F926F927F9225
:102980008F929F92AF92BF92CF92DF92EF92FF927F
:102990000F931F93CF93DF93CDB7DEB72A970FB670
:1029A000F894DEBF0FBECDBF5A01822E912C940148
:1029B000280F391F37FDBAC0803891050CF0B6C01A
:1029C0009B01200F311D37FDB1C0603471050CF043
:1029D000ADC0AB0177FF04C044275527461B570BFA
:1029E000477055279B0177FF02C0295F3F4FE3E007
:1029F00035952795EA95E1F777FF08C02150310911
:102A000068E070E0FB01E41BF50BAF01202E26947B
:102A100026942694312C077019F0FFEF2F1A3F0AE5
:102A2000220E331E39017694762C662477946794AF
:102A3000680E791EE12CF12C00E010E0B301605823
:102A40007F4F7A87698768E070E0FB01E41BF50B34
:102A5000FA83E9832216330609F468C02830310569
:102A600009F464C02F3FFFEF3F070CF454C0E98521
:102A7000FA85E00FF11FBF0162577D4F7C836B83A6
:102A8000D801A60DB71DA257BD4F6C0160E070E0E4
:102A9000681579050CF03FC0E0E8CE16D10409F4C2
:102AA0003AC0D7FC2CC02F3FFFEF3F0709F43AC0D4
:102AB000FB01EE0DFF1DEA0DFB1DE491042E01C08C
:102AC000EE0F0A94EAF7FC91EF2BEC9341155105B8
:102AD000B1F02730310599F0FB01EE0DFF1DEA0D35
:102AE000FB1DE4914E2E512C098002C05594479451
:102AF0000A94E2F7EB81FC815080452840826F5FA9
:102B00007F4FEB81FC813196FC83EB83FFEFCF1A83
:102B1000DF0A1196BDCF2F5F3F4F00581F4FE80CC3
:102B2000F91C98CF41155105B9F6E9CF2A960FB691
:102B3000F894DEBF0FBECDBFDF91CF911F910F91F3
:102B4000FF90EF90DF90CF90BF90AF909F908F90CD
:102B50007F906F905F904F903F902F9008952091BD
:102B6000F406282329F49091F306982381E009F4D0
:102B700080E00895EEE8F2E0A0E0B8E000800EBC4E
:102B80008111012C1197A0FDFDCF0192B9F70DB471
:102B9000089580E0EEE8F2E081118FEF0024819348
:102BA0008193819381930394D1F70895009769F0FD
:102BB000FC0101900020E9F73197AF01481B590B48
:102BC000BC018AEE96E00C94310E80E090E008950E
:102BD0000C94D6159C01240F311D1216130674F5A2
:102BE000803891055CF597FF02C080E090E02138C5
:102BF000310514F020E830E0281BAB014770552761
:102C000031E001C0330F4A95EAF777FF02C0695FF0
:102C10007F4F43E0759567954A95E1F77695762F56
:102C2000662777956795860F971FFC01E257FD4F42
:102C3000215020F08081832B8193FACF08958091D9
:102C4000050781110DC082E08093010784E0809325
:102C50000207109204071092030781E08093050792
:102C600081E097E008954091690750916A072091AB
:102C700067073091680742175307B4F49091E80052
:102C80009570E1F39091E80092FD19C08093F100F6
:102C90008091690790916A0701968F739927892B14
:102CA00019F48EEF8093E8008091690790916A078C
:102CB000019690936A078093690781E0089580E008
:102CC0000895DF92EF92FF920F931F93CF93DF93BC
:102CD000D82E8A017B01E40EF51EEB01CE15DF052F
:102CE00071F0D7FE03C0FE01849101C088810E946B
:102CF000331621968111F2CF8FEF9FEF01C0C801EB
:102D0000DF91CF911F910F91FF90EF90DF90089589
:102D1000615030F02091F100FC0120830196F8CF42
:102D2000289884E680938C0208953FB7F8948091A8
:102D3000630790916407A0916507B091660726B577
:102D4000A89B05C02F3F19F00196A11DB11D3FBFE3
:102D5000BA2FA92F982F8827820F911DA11DB11D71
:102D6000BC01CD0142E0660F771F881F991F4A956D
:102D7000D1F708950F931F93CF93DF931F92CDB791
:102D8000DEB782E0898342E450E067E97BE180E8D6
:102D90000E9461160E941F16DC0112960D911C9173
:102DA00013970115110589F0D801ED91FC9102806E
:102DB000F381E02DBE016F5F7F4FC801099597FD3C
:102DC00004C0F80100851185ECCF89810F90DF9157
:102DD000CF911F910F9108951F920F920FB60F92EE
:102DE00011248F939F938091E1009091E100937F54
:102DF0009093E10083FF0FC01092E90091E090935F
:102E0000EB001092EC0092E39093ED0010928D0293
:102E100098E09093F00082FF20C093E09093E90047
:102E20009091F200992319F09AE39093E800909121
:102E30008A02992339F090918A02915090938A02E4
:102E4000992389F190918C02992339F090918C0209
:102E5000915090938C02992341F184FF10C080918E
:102E6000E2008E7E81608093E2008091E1008F7E9F
:102E70008093E10080918B028E7E806111C080FF83
:102E800016C08091E2008E7E80618093E200809186
:102E9000E1008E7E8093E10080918B028E7E8160C6
:102EA00080938B0204C05D9ACDCF289AD6CF9F9194
:102EB0008F910F900FBE0F901F9018951F920F9239
:102EC0000FB60F921124CF92DF92EF92FF920F93E1
:102ED0001F932F933F934F935F936F937F938F93A2
:102EE0009F93AF93BF93EF93FF93CF93DF93CDB7B0
:102EF000DEB76C97DEBFCDBF1092E9008091E8008D
:102F000083FFFBC168E0CE0145960E94881682EFE0
:102F10008093E8008D8987FF05C09091E80090FFBD
:102F2000FCCF03C09EEF9093E800982F907609F0B5
:102F3000C6C09E894F89588D2F89F88C91110CC07D
:102F4000803829F4809161078093F10002C01092CB
:102F5000F1001092F10045C1913051F4811141C14D
:102F60004130510509F03DC1809161078D7F0BC053
:102F7000933061F4811135C14130510509F031C1FF
:102F8000809161078260809361072BC1953049F47D
:102F90008091E80080FFFCCF822F80688093E3005F
:102FA00020C1963009F05EC00B8D1C8D22E010927E
:102FB000E90010926A0710926907F21232C010926B
:102FC0006807109267070E94BA1699E0BE016F5F0A
:102FD0007F4FDB01E92F1D92EA95E9F79983FA8289
:102FE00091E09E8390EA98879AEF998720916907EC
:102FF00030916A07275F3F4F3C832B838D8310926C
:10300000E90010926A07109269071093680700930D
:10301000670749E050E080E00E9461160E94BA16FE
:10302000E0C010936807009367070E941F16DC0139
:1030300012960D911C9113970115110509F4BBC04F
:10304000D801ED91FC910480F581E02DBE016B5E0D
:103050007F4FC8010995009709F0C7C0F8010085A6
:103060001185EACF973009F445C1983021F481E009
:103070008093F100B6C0993009F0B3C0837009F0B5
:1030800039C1ECE4F1E081E031E096E320812111E7
:1030900009C08EE78093EA001092EA008F8980933E
:1030A0008D029FC08093E9003093EB002191209323
:1030B000EC009093ED008F5F873041F7EACF8B8D66
:1030C0009C8D1092E90010926A0710926907909304
:1030D000680780936707898D811153C08E899D8908
:1030E000913A49F4813209F005C147E050E061E0CE
:1030F00071E080E0BBC0913209F0FCC0833269F41A
:103100008F89988DA0E0B0E08093090190930A0127
:10311000A0930B01B0930C0164C0803269F48091DC
:10312000E80082FFFCCF67E081E091E00E94881612
:103130008BEF8093E80055C0823209F052C08F892E
:1031400080930801EEEFFFE7859194918B3F9C4DB2
:1031500019F0E0E0F8E002C0EEEFFAE08091010142
:1031600090910201A0910301B0910401803B944031
:10317000A105B10509F09EC08091080180FF79C0CA
:1031800099C00E941F16FC010281138101151105CF
:1031900009F4B0C0D801ED91FC910190F081E02DCF
:1031A000BE016B5E7F4FC801099581111AC0F801FD
:1031B00000851185EBCFF1E0FF1609F44EC0F3E076
:1031C000FF1298C08F89882309F44AC0823089F49D
:1031D00040E860E18BEF9BE10E94262A882309F4F6
:1031E00089C08EEF8093E80088C018161906CCF3CA
:1031F00081C0813029F440E86BE08FEE9BE1ECCF99
:10320000833009F077C00E941F16DC011296ED9002
:10321000FC9013978E010F5F1F4F6801E114F104BA
:1032200079F0D701ED91FC910680F781E02DB8018E
:10323000C7010995080F111DF701E084F184EECF55
:10324000D8011C92F60101900020E9F73197BF01E7
:103250006C197D0940E0C601BFCF6DED7BE102C076
:1032600069ED7BE1FB01449150E080E80E9461162A
:10327000B8CFEE3F2AE0F20751F080819181873785
:10328000A7E79A0721F09093FF0A8093FE0A87E749
:1032900097E7918380838091600080936B079BE028
:1032A00088E10FB6F894A895809360000FBE9093C4
:1032B000600097CF808191818737974709F091CF40
:1032C000A8958091600088618093600080916B0771
:1032D00080936000EE3FBAE0FB0739F08091FE0A70
:1032E0009091FF0A918380837CCF1092FF0A109205
:1032F000FE0A77CF81E28093EB006C960FB6F894CC
:10330000DEBF0FBECDBFDF91CF91FF91EF91BF9197
:10331000AF919F918F917F916F915F914F913F916D
:103320002F911F910F91FF90EF90DF90CF900F9012
:103330000FBE0F901F9018958F929F92AF92BF92E1
:10334000CF92DF92EF92FF926B017C010E94951663
:103350004B015C01C114D104E104F104F1F00E94BD
:103360009516DC01CB0188199909AA09BB09883E89
:103370009340A105B10570F321E0C21AD108E1081C
:10338000F10888EE880E83E0981EA11CB11CC114C0
:10339000D104E104F10419F7DDCFFF90EF90DF9045
:1033A000CF90BF90AF909F908F9008951F920F92F3
:1033B0000FB60F9211242F933F938F939F93AF9348
:1033C000BF9380915D0790915E07A0915F07B091D8
:1033D00060073091620723E0230F2D3720F4019618
:1033E000A11DB11D05C026E8230F0296A11DB11D28
:1033F0002093620780935D0790935E07A0935F0719
:10340000B09360078091630790916407A09165076E
:10341000B09166070196A11DB11D8093630790933B
:103420006407A0936507B0936607BF91AF919F9122
:103430008F913F912F910F900FBE0F901F90189575
:10344000CF93DF93CDB7DEB7A4970FB6F894DEBF66
:103450000FBECDBF789484B5826084BD84B5816091
:1034600084BD85B5826085BD85B5816085BD80914F
:103470006E00816080936E001092810080918100C7
:1034800082608093810080918100816080938100BF
:1034900080918000816080938000809191008260A3
:1034A0008093910080919100816080939100809140
:1034B00090008160809390008091C100846080932F
:1034C000C1008091C10082608093C1008091C100E1
:1034D00081608093C1008091C30081608093C300AC
:1034E0008091C00082608093C0008091C2008160A2
:1034F0008093C20080917A00846080937A008091EA
:103500007A00826080937A0080917A008160809353
:103510007A0080917A00806880937A0010928D0200
:103520001092610710928B028091D7008160809386
:10353000D70080EA8093D80089B5806189BD89B5BC
:10354000826089BD09B400FEFDCF61E070E080E0DB
:1035500090E00E949C198091D8008F7C80618093BC
:10356000D8008091E000807F8093E0008091E100AE
:103570008E7E8093E1008DE08093E200559A209A40
:1035800081EC80937C0085B1806F85B984B1877EA2
:1035900084B984B1876E84B95E9A5F988AB1806D70
:1035A0008AB9769A6E9881B3806F81BB899880B30F
:1035B0008D7080BB80E58CBD81E08DBD85E090E0A5
:1035C0000E947C105F9A85E090E00E947C105E98DB
:1035D0005C98ECE5F1E084918EBD00000DB407FE2F
:1035E000FDCF319621E0E936F207A9F75C9A81E830
:1035F000809364008091650081608093650080E025
:103600000E94BA150E94811087FF24C05C9885EA49
:103610008EBD00000DB407FEFDCF5C9A2E982F984A
:103620002D988091640080628093640081E083BF64
:10363000889513BEFCCF2D980E9481108478843821
:1036400071F00E9481108471843131F188EC90E036
:103650000E947C100E94811082FDEDCF3AC00E9432
:103660007A1088EC90E00E947C102F9882E090E025
:103670000E945B2A8F3F29F06FEF82E090E00E946A
:10368000632A84EF91E00E947C102F9A0E9481109F
:1036900084788438D9F3D5CF0E947A1088EC90E0F2
:1036A0000E947C102E9882E090E00E945B2A882382
:1036B00029F060E082E090E00E94632A84EF91E0CC
:1036C0000E947C102E9A0E94811084718431D9F35B
:1036D000BDCF0E947A1082E090E00E94891088237A
:1036E00019F03E9A3F9A02C03E983F9881E090E0E0
:1036F0000E948910182F147081FF3FC011112E985D
:1037000070EFE72EFF24FA940E94811086FF05C017
:103710002E9A2F9A0E947A1030C0112331F034E093
:10372000E316F10411F42E9A2F9881E00E94BA1545
:1037300000E128E54CEA50E0B70184E190E00E9406
:10374000BA1480E00E94BA158FE090E00E947C10CD
:103750004FEFE41AF40A59E1E516F104A9F6112332
:1037600011F02F9A2D9880E991E00E947C100E9420
:103770007A108AEE96E00E94602982E390E00E942F
:103780007C100E9481108111F8CF0E94C9151092FF
:10379000FC061092FB061092FA061092F90620E041
:1037A00049E651E060E070E080E090E00E94451062
:1037B00080E00E94BA1588EB9BE00E947C1050E8E4
:1037C000452E512C62E3262E312C8FB7F894409170
:1037D0005D0750915E0760915F07709160078FBF32
:1037E0008091F606942F981B892F9091F7069923C4
:1037F00031F08093F8061092F7060C945B279091B5
:10380000F506891758F48F5F891710F00C945B2721
:1038100081E083BF889513BE0C945B2711E0109361
:10382000F7064093F6068091F1069091F206019614
:103830009093F2068093F1060E94C9151092FC063F
:103840001092FB061092FA061092F9068091F30688
:103850008093F4060E9481108093F3068091890280
:10386000823009F4CBC038F4882391F0813009F418
:103870003FC00C945827843011F40C94082710F49E
:103880000C949626853011F40C94D8260C94582765
:1038900000E420E847E952E160E070E080E090E079
:1038A0000E94BA140E94811083FF06C010938902FF
:1038B00088EC90E00E947C1088E290E09093FA06F9
:1038C0008093F90688E390E09093FC068093FB06D2
:1038D00082E591E00E94E81510928802109287021A
:1038E0001092860210928502109284020C9458273E
:1038F00080910001811103C085E00C94D52600E47D
:1039000020E847E95EE060E070E080E090E00E943F
:10391000BA1480E20E94AF150091820210918302D6
:10392000882319F00150110907C080E40E94AF15E7
:10393000882331F00F5F1F4F1093830200938202A0
:1039400080918802882399F080918702882379F0FA
:1039500080918602882359F080918502882339F06E
:1039600080918402882319F081E080938102209164
:1039700081028091820290918302222351F086304D
:10398000910514F40C946527109283021092820220
:103990000BC085309105C4F797FF06C084E090E026
:1039A000909383028093820280918202909183029D
:1039B000880F991FFC01EE0FFF1FE35FFE4F008190
:1039C0001181880F991FFC01E15FFE4FE080F180BB
:1039D000D0908002FF241127DD2011F40C946D2774
:1039E0008091F1069091F20667E070E00E94932AC0
:1039F000892B11F40C94E1270C946D2740E86FE3B8
:103A000070E080E090E00E94EA1580E10E94AF152E
:103A1000882319F083E00C94D5260E94811082FD42
:103A200002C010E201C012E40E94811086FD12E57E
:103A30000E94811085FD1CE40E94811084748434EE
:103A400019F080E2F82E03C002E5F02E12E40E9485
:103A500081108472843219F41CE4F12E12E48091F6
:103A6000370281113AC081E090E09093D1068093B3
:103A7000D00640E350E05093D3064093D20690E145
:103A80009093D4069093D5068093D60620E3209396
:103A9000D7061092D9063092DB062092DA061092F1
:103AA000DC061092DD069093DE068093DF069EE131
:103AB0009093E0068093E1061092E2061092E306EE
:103AC0001092E4061092E5061092E6068093E7064F
:103AD0001092E8061092E9063FC188E00E94AF15F7
:103AE000882309F43FC020E030E089EE91E04CE00B
:103AF000FC01DE01119601900D924A95E1F7FC015F
:103B00004285442349F16091E1068091D60690E018
:103B1000611140964091D70650E0475F5F4F9A830E
:103B200089835C834B8384E08D838E8382E08F83E3
:103B300081E0888719866A871B868CE0829FD00186
:103B4000839FB00D1124A751BE4FFE013196019005
:103B50000D928A95E1F706C02F5F3F4F0C962330F8
:103B6000310529F6A9EEAA2EA1E0BA2EBDE08B2ED2
:103B7000B2E09B2E3501F3018285811109C062817B
:103B8000738120854DE257E0808191810E9445102C
:103B9000FCE06F0E711C8614970469F79091E5069E
:103BA0008091D6066091D706992311F40C9456297A
:103BB0009091F10690FF02C00C945629A091D9066D
:103BC00070E090E0EBE6F5E00491ECE6F5E0E490DF
:103BD000AA2311F40C94522921E030E04E2D4770B5
:103BE00011F420E030E04E2D469546954695240F81
:103BF000311D029FF001039FF00D1124AE9FA00123
:103C0000AF9F500D112443595A4FFBEFCF2E20E0A8
:103C100030E00E94620E8DE390E09093FA0680936C
:103C2000F9061092FC061092FB062091000130E08C
:103C300040E050E019A23E0181E2680E711CCA0109
:103C4000B9012AE030E040E050E00E94712A605D56
:103C5000F30162933F01211531054105510579F7C3
:103C6000CF010E94D6154091DA0660E070E080E056
:103C700090E00E94EA159091E506992329F0809141
:103C8000DD068F5F8093DD068091DD06853011F4BF
:103C90000C9404282091D606822F90E09093D106B0
:103CA0008093D0068091D706482F50E05093D306DA
:103CB0004093D206123411F00C940C289091E20635
:103CC000992311F40C943028FCE4FF1611F40C94A1
:103CD0003A2832E5F31611F40C943A289091E20652
:103CE00091110C945E289091E30691110C94702828
:103CF0008091E60681110C94B6281AA21BA21CA280
:103D0000BE016E5D7F4F8B0189EE91E0FF24F3943D
:103D10002CE0FC01DE01119601900D922A95E1F74D
:103D2000FC012285222311F40C942A290C960F5FA2
:103D30001F4F8816990661F781E0FB019191BF0141
:103D4000992311F0F5018287FCE0AF0EB11C2DE044
:103D5000A21622E0B20689F780910001811102C00B
:103D600085E0DFC79091E906992351F091E09093A7
:103D70008902109237028150809300010C945827D9
:103D800080918202909183028230910509F424C3CC
:103D900044F4009789F08130910509F46CC10C94CA
:103DA00058278430910509F485C50CF469C405973A
:103DB00009F49CC60C9458278091370281112DC0BC
:103DC00080E78093BB0680E38093BC0680E180930C
:103DD000BD063092BF062092BE0684E08093C006E6
:103DE0008FE08093C10683E08093C2061092C306E1
:103DF0001092C4061092C50680E790E090933202BC
:103E00008093310285E390E09093340280933302F3
:103E100086E0809335028BE097C68091C3068823A5
:103E200009F458C08091E801811151C081E080936C
:103E3000E8012DE032E010E060E070E004E048E0EE
:103E4000F42E55E0E52EEAE0DE2E8CE0F901DE01ED
:103E5000119601900D928A95E1F7F90182858823E8
:103E600069F16230710551F1E091C4068091BB06A1
:103E7000412F50E090E0EE2329F04096840F951FEB
:103E8000F0E003C0841B950BF1E04091BC0650E0CC
:103E90004B5F5F4F9A8389835C834B830D83FE82E4
:103EA000EF82D886F987EA871B868CE0FE0131967F
:103EB000D90101900D928A95E1F71C5D6F5F7F4FEC
:103EC000245F3F4F6330710509F0BFCF03C081E02D
:103ED0008093E8010DE012E0F8018285811109C0AC
:103EE0006281738120854DE85EE0808191810E942E
:103EF0004510045F1F4FF2E001331F0769F760911F
:103F0000BC0670E08091BB062091C0064BE85DE0E6
:103F100090E00E9445108091BE06482F60E070E05E
:103F20009201281B3109C9010E94EA158091BC0643
:103F30002091BB0630E0422F3093320220933102B1
:103F400090E0682F909334028093330250913202B4
:103F50007091340280913502909136020E94C31113
:103F60002091BE063091BF06281B31093093BF0651
:103F70002093BE068091F1069091F20666E070E013
:103F80000E94932A892B09F068C08091C306909102
:103F9000C406882319F18091C506992331F088233E
:103FA00011F083E007C082E005C0882311F087E0AC
:103FB00001C086E08093C0068091C1068150809345
:103FC000C1068C3019F491E09093C506811143C06D
:103FD0001092C3068FE08093C1063DC08091BB065E
:103FE0002091C2066091C0069923B9F0820F809398
:103FF000BB067091BD0690E0A201471B5109FA0172
:10400000E21BF1098E179F07C4F080E8871B80939D
:10401000BB061092C40681E00AC0821B8093BB06D7
:10402000281790F01092BB0681E08093C40680931D
:10403000C3068091C406882339F0613019F41092C8
:10404000C00609C081E005C0653011F484E001C0FC
:1040500085E08093C0060E948D128091BE069091EB
:10406000BF06181619060CF423C781E08093890255
:104070008093880258C620913702211134C020E76E
:104080002093AD0620E32093AE0620E12093AF06F7
:104090003092B1062092B00635E03093B20690938C
:1040A000B4068093B3068AE08093B50683E08093DC
:1040B000B6061092B7061092B80681E08093B90652
:1040C0001092BA0640E750E050933202409331021A
:1040D00040E350E050933402409333022093350282
:1040E0002093360234C58091B706882309F457C05F
:1040F0008091E801811150C081E08093E801F09047
:10410000B8068091AD0690E09C01205F3F4F40973C
:10411000FF2011F0890101C08C018091AE0690E072
:10412000B0910D02A0910E02F0910F02E0911002E9
:104130007091110260911202509113024091140289
:104140003091150220911602E0901702EE2079F0CE
:104150001092170221E0209318022F2D30E0F82F43
:10416000E92FB02FA12F45E055E060E170E1B09359
:104170000D02A0930E02F0930F02E09310027093D1
:104180001102609312025093130240931402309371
:1041900015022093160203C081E08093E8010DE030
:1041A00012E0F8018285811109C062817381208546
:1041B00049E65DE0808191810E944510045F1F4FB8
:1041C000F2E001331F0769F76091AE0670E080915D
:1041D000AD062091B20647E25CE090E00E944510F7
:1041E0008091B006482F60E070E09201281B3109F1
:1041F000C9010E94EA158091AE062091AD0630E01B
:10420000422F309332022093310290E0682F909336
:1042100034028093330250913202709134028091C3
:104220003502909136020E94C3112091B006309160
:10423000B106281B31093093B1062093B006809156
:10424000F1069091F20666E070E00E94932A892BB5
:1042500009F0B4C08091B7069091B806882311F197
:104260002091B2068091B506992341F0233021F4C4
:10427000853010F494E009C093E007C0283021F4A1
:10428000853010F499E001C098E09093B206815017
:104290008093B506811190C01092B7068AE0809392
:1042A000B5068AC08091B9062091B606882389F1A7
:1042B0009091BA068091AE06992311F0820F01C049
:1042C000821B8093AE064091AF063091AE0680E42B
:1042D00090E0841B9109821B9109632F70E086177F
:1042E000970754F480E4841B8093AE0681E08093AA
:1042F000B7061092BA063FC02317E8F12F5F20934C
:10430000AE061092B70681E08093BA061092B90605
:1043100032C08091AD069923F1F0820F8093AD06F3
:104320006091AF0690E0A201461B5109FA01E21B21
:10433000F1098E179F071CF180E8861B8093AD065C
:104340001092B80681E08093B9068093BA0685E0A2
:104350008093B20610C0821B8093AD062817F8F038
:104360001092AD0681E08093B8068093B9068093E1
:10437000BA061092B2068091B806882381F0809127
:10438000B206833018F08FEF9FEF04C081110DC08B
:1043900081E090E09093B4068093B30606C08091CC
:1043A000B206883080F7853099F39091B2068091FB
:1043B000B306890F8093B2060E948D128091B006D9
:1043C0009091B106181619060CF472C581E080931D
:1043D000890280938702A7C48091370281112EC081
:1043E00080E68093A20680E38093A30690E29093F8
:1043F000A4063092A6062092A50683E08093A70625
:1044000084E18093A80681E08093A9061092AA0611
:104410001092AB068093AC0620E630E03093320277
:104420002093310240E350E0509334024093330232
:104430009093350290E19093360289C38091AA0649
:10444000882309F44CC08091E801811145C081E0C6
:104450008093E8012DE032E060E040E050E074E05D
:1044600015E08CE0F901DE01119601900D928A951C
:10447000E1F7F9018285882339F1A091AB0680919B
:10448000A206E62FF0E090E0AA2321F080968E0F9E
:104490009F1F02C08E1B9F0BE091A306F0E0359694
:1044A0009A838983FC83EB837D837E831F831887B4
:1044B0001986AA871B868CE0FE013196D9010190EE
:1044C0000D928A95E1F7685F4F5F5F4F245F3F4F22
:1044D0004330510531F603C081E08093E8010DE0DF
:1044E00012E0F8018285811109C062817381208503
:1044F00041E25CE0808191810E944510045F1F4F82
:10450000F2E001331F0769F76091A30670E0809124
:10451000A2062091A7064FE95AE090E00E944510BC
:104520008091A506482F60E070E09201281B3109B8
:10453000C9010E94EA158091A3062091A20630E0ED
:10454000422F309332022093310290E0682F9093F3
:104550003402809333025091320270913402809180
:104560003502909136020E94C3112091A506309128
:10457000A606281B31093093A6062093A506809134
:10458000F1069091F20666E070E00E94932A892B72
:1045900009F068C08091AA064091AB068823A1F07B
:1045A000442311F082E001C085E08093A70680914A
:1045B000A80681508093A806811152C01092AA06C5
:1045C00084E18093A8064CC09091AC068091A3062C
:1045D0002091A906992311F0820F01C0821B8093BC
:1045E000A3068091A30690E03091A406532F569520
:1045F00060E470E0651B71098617970734F481E069
:104600008093AA068093AC0617C060E470E0621B3A
:1046100071096817790784F4442339F01092AB06C6
:1046200080E8831B8093A20605C081E08093AB06DF
:104630001092A2061092AC069091AB068091AC0647
:10464000992339F0811103C01092A70609C081E0B7
:1046500005C0811102C083E001C084E08093A706F9
:104660000E948D128091A5069091A6061816190633
:104670000CF41EC481E0809389028093850253C3A9
:1046800080913702811127C080E78093980680E3EC
:104690008093990680E180939A0630929C0620923E
:1046A0009B0693E090939D0695E090939E0696E07E
:1046B00090939F061092A0061092A10620E730E08A
:1046C000309332022093310240E350E050933402A1
:1046D0004093330237C28091A006882309F44BC06F
:1046E0008091E801811144C081E08093E8014DE0B0
:1046F00052E020E030E068E075E016E08CE0FA017E
:10470000DE01119601900D928A95E1F7FA018285FA
:10471000882331F12115310519F5A091A106809169
:10472000980690E0AA2319F04096B0E001C0B1E0ED
:10473000E0919906F0E035969A838983FC83EB83B8
:104740006D836E837F831887B987AA871B868CE069
:10475000FE013196ADE0B2E001900D928A95E1F74D
:104760002F5F3F4F445F5F4F2330310539F603C061
:1047700081E08093E8010DE012E0F801828581116B
:1047800009C06281738120854DE85AE08081918162
:104790000E944510045F1F4F21E332E020173107CC
:1047A00061F76091990670E08091980620919D06CE
:1047B0004BEC59E090E00E94451080919B06482FF9
:1047C00060E070E0F201E81BF109CF010E94EA15F8
:1047D000809199062091980630E0422F3093320262
:1047E0002093310290E0682F90933402809333023B
:1047F00050913202709134028091350290913602CC
:104800000E94C31120919B0630919C06281B310900
:1048100030939C0620939B068091F1069091F206BE
:1048200066E070E00E94932A892BB1F58091A00682
:104830008823B1F08091A106882311F082E001C0A5
:1048400085E080939D0680919E06815080939E0610
:10485000811120C01092A00685E080939E061AC0A8
:1048600088E996E00E94A0118091A106882349F072
:1048700080919D06813019F410929D060BC081E055
:1048800007C080919D06843011F483E001C084E06C
:1048900080939D060E948D1280919B0690919C06AC
:1048A000181619060CF404C381E0809389028093E2
:1048B000860239C28091370281112BC080E6809335
:1048C000C60680E38093C70680E28093C8063092D4
:1048D000CA062092C90683E08093CB068AE08093C3
:1048E000CC0685E08093CD061092CE061092CF06BE
:1048F00020E630E030933202209331024AE350E068
:1049000050933402409333028BE18093350280E16F
:104910001BC18091CE06882309F44BC08091E80129
:10492000811144C081E08093E8014DE052E020E035
:1049300030E068E075E016E08CE0FA01DE011196E7
:1049400001900D928A95E1F7FA018285882331F171
:104950002115310519F5A091CF068091C60690E08A
:10496000AA2319F08096B0E001C0B1E0E091C7063B
:10497000F0E035969A838983FC83EB836D836E83A5
:104980007F831887B987AA871B868CE0FE01319642
:10499000ADE0B2E001900D928A95E1F72F5F3F4FB5
:1049A000445F5F4F2330310539F603C081E08093C7
:1049B000E8010DE012E0F8018285811109C06281F1
:1049C0007381208549EB59E0808191810E944510D7
:1049D000045F1F4F21E332E02017310761F7609138
:1049E000C70670E08091C6062091CB0647E358E0E9
:1049F00090E00E9445108091C906482F60E070E069
:104A0000F201E81BF109CF010E94EA158091C70667
:104A10002091C60630E0422F3093320220933102BB
:104A200090E0682F909334028093330250913202C9
:104A30007091340280913502909136020E94C31128
:104A40002091C9063091CA06281B31093093CA0645
:104A50002093C9068091F1069091F20666E070E01D
:104A60000E94932A892BA1F58091CE068823B1F06C
:104A70008091CF06882311F082E001C085E0809309
:104A8000CB068091CC0681508093CC0681111EC04C
:104A90001092CE068AE08093CC0618C086EC96E091
:104AA0000E94A0119091CF068091CB06992339F0F6
:104AB000813019F41092CB0609C081E005C0843022
:104AC00011F483E001C084E08093CB060E948D1234
:104AD0008091C9069091CA06181619060CF4E8C10F
:104AE00081E080938902809384021DC18091370206
:104AF000811130C080E780938E0680E380938F061B
:104B000080E1809390062CE330E03093920620936E
:104B1000910693E09093930694E19093940695E028
:104B200090939506109296061092970620E730E033
:104B3000309332022093310220E330E0309334028C
:104B400020933302809335028093360281E0809374
:104B50003702AEC180919606882309F449C080913E
:104B6000E801811142C081E08093E8014DE052E00C
:104B700020E030E010E200E18AE0F82E96E0E92E35
:104B80008CE0FA01DE01119601900D928A95E1F711
:104B9000FA018285882309F121153105F1F4E091AC
:104BA000970680918E0690E0E111409660918F0605
:104BB00070E09A8389837C836B831D830E83FF82DD
:104BC000E8861986EA871B868CE0FE013196ADE007
:104BD000B2E001900D928A95E1F72F5F3F4F445F5D
:104BE0005F4F2330310561F603C081E08093E80117
:104BF0000DE012E0F8018285811109C062817381A4
:104C0000208545EF57E0808191810E944510045F27
:104C10001F4FF2E001331F0769F760918F0670E0C4
:104C200080918E062091930643E357E090E00E9426
:104C3000451080919106482F60E070E09201281B9A
:104C40003109C9010E94EA1580918F0620918E06D4
:104C500030E0422F309332022093310290E0682FEF
:104C60009093340280933302509132027091340257
:104C700080913502909136020E94C31120919106D5
:104C800030919206281B31093093920620939106A9
:104C90008091F1069091F20666E070E00E94932AFE
:104CA000892BB1F5809196068823B1F08091970603
:104CB000882311F082E001C085E080939306809103
:104CC0009406815080939406811120C0109296061C
:104CD00084E1809394061AC08EE896E00E94A011A9
:104CE00080919706882349F080919306813019F4CA
:104CF000109293060BC081E007C080919306843028
:104D000011F483E001C084E0809393060E948D1229
:104D10008091910690919206181619060CF4C8C05D
:104D200084E08093890210923702C2C048E26BE1AE
:104D300070E08CE290E00E94EA1548E266E270E0E2
:104D40008CE290E00E94EA150BE110E041E0B8012E
:104D50008CE290E00E948B100F5F1F4F073211050D
:104D6000A9F70BE110E041E0B80183E590E00E9473
:104D70008B100F5F1F4F07321105A9F78EE290E0ED
:104D80009093FA068093F9068DE190E09093FC06EB
:104D90008093FB0681E691E00E94E81580E10E9485
:104DA000AF15882309F484C082E08093890280C013
:104DB00088E290E09093FA068093F90680E290E012
:104DC0009093FC068093FB0688E691E00E94E8152C
:104DD0008AE090E09093FA068093F90684E390E0ED
:104DE0009093FC068093FB0682E791E00E94E81511
:104DF00088E00E94AF15882309F45AC010928902F6
:104E000083E08093000188EC90E00E947C1050C009
:104E10001092FA061092F9061092FC061092FB0608
:104E200085E891E00E94E8151092FA061092F906C2
:104E30008AE090E09093FC068093FB0688E991E07D
:104E40000E94E8151092FA061092F90684E190E0AB
:104E50009093FC068093FB0684EA91E00E94E8159B
:104E60001092FA061092F9068EE190E09093FC06FB
:104E70008093FB068AEB91E00E94E8151092FA06F7
:104E80001092F90688E290E09093FC068093FB066E
:104E900082EC91E00E94E8151092FA061092F90651
:104EA0003092FC062092FB0686ED91E00E94E81508
:104EB00080E00E94BA1580E090E0892B11F40C94F8
:104EC000E51B0E9400000C94E51B97FD02C00C94AA
:104ED000D41C85E090E00C94D01C480134E0830E93
:104EE000911C370144E0640E711C08151905B9F0D6
:104EF0005701C30121E46216710414F080E490E0CC
:104F0000A816B9064CF440E0B501C8010E948B1008
:104F10003FEFA31AB30AEDCF0F5F1F4FE6CF11E0AB
:104F2000D126D092800284E00E94AF15882309F434
:104F3000BFCF82E08093890210937E0210937202A9
:104F4000109366028CE0E4E7F2E0ADE0B2E001909D
:104F50000D928A95E1F78CE0E8E6F2E0A9E1B2E093
:104F600001900D928A95E1F78CE0ECE5F2E0A5E284
:104F7000B2E001900D928A95E1F710935A021093D6
:104F80004E02109342028CE0E0E5F2E0A9EEB1E0BF
:104F900001900D928A95E1F78CE0E4E4F2E0A5EF50
:104FA000B1E001900D928A95E1F78CE0E8E3F2E040
:104FB000A1E0B2E001900D928A95E1F71092E8012C
:104FC00022CF480154E0850E911C370184E0680E21
:104FD000711C0815190509F4A2CF5701C301E1E4BA
:104FE0006E16710414F080E490E0A816B9064CF433
:104FF00041E0B501C8010E948B10FFEFAF1ABF0A54
:10500000EDCF0F5F1F4FE5CF992311F40C944A1E8B
:105010001092E5060C944A1E13341CF4113431F03E
:1050200049C01C3419F0123561F044C09091E1067A
:10503000992319F098E09093D90691E09093E606B1
:1050400026C09091E106992321F09091D906911103
:1050500003C091E09093D90691E09093E60626C0B4
:105060009091E30691110C94641E91E09093E206F6
:105070000C94641E91E09093E6064CE4F4120BC08D
:105080009091E106992319F098E09093D906109237
:10509000E1060C946E1E52E5F5120C946E1E3091D2
:1050A000E106311102C09093D90691E09093E10698
:1050B0000C946E1E1092E6060C946E1E9091E10602
:1050C000992311F094E001C09BE09093D90691E000
:1050D0009093E3061092E2068093D8060C94781E13
:1050E0009091E406911117C0682F70E04091D806A6
:1050F00050E03091E006431B5109461757075CF416
:1051000081508093D7068091E106882311F085E0D5
:1051100029C08CE027C08F5F8093D706911103C010
:1051200091E09093E4063091DE0690E040E450E098
:10513000431B51094817590714F00C94781E80E45A
:10514000831B8093D7061092E3061092E406109218
:10515000DC068091E106882321F01092D9060C9498
:10516000781E87E08093D9060C94781E3091E10672
:105170009091DF068091DC063323C9F1290F20933B
:10518000D6068F3009F59091E30691111DC09091DC
:10519000E8068091D906992361F0833021F482E0FA
:1051A0008093D9060EC081E08093D9061092E8065C
:1051B00008C08130A1F383E08093D90681E0809319
:1051C000E8061092DC0603C08F5F8093DC06209116
:1051D000DE068091D60690E0A201421B51094817D5
:1051E000590714F00C947D1E80E8821B2FC0291BE8
:1051F0002093D6068F3009F59091E30691111DC0DA
:105200009091E8068091D906992361F08A3021F4C3
:1052100089E08093D9060EC088E08093D906109269
:10522000E80608C08830A1F38AE08093D90681E0BF
:105230008093E8061092DC0603C08F5F8093DC0643
:105240008091D60681110C947D1E81E08093D60654
:105250000C947D1E20813181B781A1854B2F50E0B8
:105260004217530734F4F201E41BF50B2E173F07E6
:105270001CF0F801F08207C0AA2319F0240F351F93
:1052800002C0241B350B3A832983B887AA871B8663
:105290002CE0FE013196DC0101900D922A95E1F798
:1052A0000C94961E4DE655E00C94051E70E020917E
:1052B000D9064BE655E090E00E9445100C940B1E79
:1052C0000F931F93CF93DF938C0181E090E00E94B6
:1052D000891080FF32C08AE090E00E9489109FEF21
:1052E000980F9E3F50F522E330E0D80150963C9352
:1052F0002E931F9728E330E052963C932E935197BC
:10530000CBE0D0E0D801ED91FC910190F081E02D4F
:10531000682FC8010995CE010E9489102196C131DC
:10532000D10581F780E00E94BA1588EE93E0DF9105
:10533000CF911F910F910C947C10DF91CF911F9111
:105340000F91089504970C946029EDE0F7E0138223
:10535000128288EE93E0A0E0B0E084839583A68378
:10536000B78389E291E0918380838FEF9FEF9587E8
:105370008487EAEEF6E0138212821186128680E1BB
:1053800083871086178215868BE391E09183808353
:1053900089E491E095838483108A1786128A118AA2
:1053A00081E0838B148A858B168AE0EDF6E022E398
:1053B00030E0338722871486158687879EE1908B9D
:1053C000818B128A138A148A158A168A878B108E0B
:1053D000118EE6ECF6E0348323835AE0568395E0A1
:1053E000978310861186EBEBF6E0348323834FE03E
:1053F000468343E04783108611861286EDEAF6E085
:1054000034832383508741871286138684871586C9
:10541000E2EAF6E03483238344E1468387831086FF
:1054200011868287E8E9F6E034832383968386E059
:10543000878310861186EEE8F6E02CE330E03483B3
:10544000238346839783108611860895DF92EF9217
:10545000FF920F931F93CF93DF93D82EF92EE42E54
:10546000062F10E0C8010196880F0E94331683E0D2
:105470000E943316CD2DDF2D0C0F1D1FC017D10735
:1054800089F0E7FE03C0FE01849101C088810E947B
:105490003316F82E80E00E9433168F212196811159
:1054A000EDCF01C081E0DF91CF911F910F91FF906F
:1054B000EF90DF900895F999FECF92BD81BDF89AE3
:1054C000992780B50895262FF999FECF1FBA92BD6E
:1054D00081BD20BD0FB6F894FA9AF99A0FBE0196D5
:1054E0000895A1E21A2EAA1BBB1BFD010DC0AA1F25
:1054F000BB1FEE1FFF1FA217B307E407F50720F03D
:10550000A21BB30BE40BF50B661F771F881F991FB7
:105510001A9469F760957095809590959B01AC0100
:10552000BD01CF010895AA1BBB1B51E107C0AA1FF3
:10553000BB1FA617B70710F0A61BB70B881F991F34
:105540005A95A9F780959095BC01CD010895EE0F6D
:10555000FF1F0590F491E02D099481E090E0F8940C
:085560000C94B22AF894FFCF6D
:105568000300E1000000000000FFFFFFFF19000A30
:10557800003B002000230037005A0037007600283F
:105588000040000A0000000000B3133414D413C90B
:10559800131A14D813F61300000000A610310E5D7C
:1055A8000E5C0E6029FCFF0000A22900C18081006A
:1055B80000005072657373204120427574746F6ED9
:1055C800005061757365640047414D45204F56454D
:1055D80052005072657373204120746F20526573B6
:1055E80074617274005468616E6B7320666F722008
:1055F800506C6179696E670041726475626F796A8F
:10560800616D3A00546865205A6F6F2068616420A4
:10561800746F20636C6F73652100437265646974ED
:10562800730041727420616E642050726F677261FA
:105638006D6D696E67005A6163686172696168209F
:0856480046616C676F75740088
:00000001FF
