:100000000C94060C0C942E0C0C942E0C0C942E0CB0
:100010000C942E0C0C942E0C0C942E0C0C942E0C78
:100020000C942E0C0C942E0C0C94C9150C943B16AD
:100030000C942E0C0C942E0C0C942E0C0C942E0C58
:100040000C942E0C0C942E0C0C942E0C0C942E0C48
:100050000C942E0C0C942E0C0C942E0C0C94BD0CA9
:100060000C942E0C0C942E0C0C942E0C0C942E0C28
:100070000C942E0C0C942E0C0C942E0C0C942E0C18
:100080000C942E0C0C942E0C0C942E0C0C942E0C08
:100090000C942E0C0C942E0C0C942E0C0C942E0CF8
:1000A0000C942E0C0C942E0C0C942E0CF0F89C8EB0
:1000B0008783878E9CF8F00000FEFF030303030391
:1000C000070EFCF80000FEFF0303030303070EFC0A
:1000D000F80000FFFF00000000000000FFFF00002C
:1000E000FEFF8383838383C7EE7C380000F8FC0E19
:1000F00007030303070EFCF800003F7FE0C0808089
:10010000C0E07F3FFFFF01010101010101FFFF008E
:1001100000FFFF0C0C0C0C1C3E77E3C100007FFFBE
:10012000C0C0C0C0C0E0703F1F00001F3F70E0C0F3
:10013000C0C0E0703F1F00007FFFC1C1C1C1C1E36B
:10014000773E1C00001F3F70E0C0C0C0E0703F1F42
:10015000000000000001FFFF01000000D5F08D1439
:10016000A1C881CFD9F1AF2000101000007884B46D
:10017000027A6B37366A847800000000189492CABD
:10018000FFF91111F9FFCA9294180000007884B4A5
:10019000027A6B37366A84780000000018D4D26A7D
:1001A0003F39F1F1D997941414080000007884B411
:1001B000027A6B37366A8478000000060910101E38
:1001C00021EFE9D79599000000000000007884B481
:1001D000027A6B37366A84780000000609D0D07E38
:1001E0003923E7F9D39594080000000000F008686F
:1001F00004F4D66E6CD408F00000000030A8A5D539
:10020000FEF22222F2FED5A4A830000000F824E479
:10021000027A6B37366A847800000000C02322120D
:10022000FE791111F97F0A0A0A040000007884B4EB
:10023000027A6B37366A847800000000189492CAFC
:10024000FFF91111F9FFCA8A8A04000000007884BE
:100250006A36376B7A02B48478000000189492CA28
:10026000FFF91111F9FFCA92941800000000788478
:100270006A36376B7A02B48478000000081414944C
:1002800097D9F1F1393F6AD2D41800000000788480
:100290006A36376B7A02B4847800000000000000F0
:1002A0009995D7E9EF211E10100906000000788407
:1002B0006A36376B7A02B484780000000000089434
:1002C00095D3F9E723397ED0D00906000000F00865
:1002D000D46C6ED6F4046808F000000030A8A4D5F1
:1002E000FEF22222F2FED5A5A8300000000078849C
:1002F0006A36376B7A02E424F8000000040A0A0A1E
:100300007FF9111179FE122223C0000000007884C9
:100310006A36376B7A02B48478000000048A8ACA8D
:10032000FFF91111F9FFCA929418000408060F0F83
:100330000610100000000000F098F8FE98F89EF8F3
:1003400000000000000000003C25FD3737FF253D80
:100350000000000000000000F098F8FE98F89EF8F9
:1003600000000000000000003C253DF7373FE53D60
:1003700000000000FE028202FE0203F3030202F20A
:1003800002FE00007F4043407F40C0D1C85048512A
:10039000407F00000000F89EF898FEF898F00000FA
:1003A0000000000000003D25FF3737FD253C000020
:1003B000000000000000F89EF898FEF898F0000099
:1003C0000000000000003DE53F37F73D253C000000
:1003D00000000000FE02F2020203F30302FE0282AA
:1003E00002FE00007F40514850C8D1C0407F4043CA
:1003F000407F002010FFFFFFF7F777F7F7F77777D9
:100400007F7F7F7FFFFFDFDFDF1F7F7F7FFBFBFBC8
:10041000FBF9FDFFFFFFFFFEFEFEEEEF8FFFFFFF8C
:10042000FFFFFFFFFFFFFFFFEFEFEFCFDF9FBFBE3D
:10043000FEFEFEFFFF201000000080C0E0E0E0E0D4
:10044000E0E0E0E0E0E020C02020C0E0F0F0F0706C
:10045000E0C000000000000006010F1F1FFFFFFFAB
:10046000FF3F3F3F3F3F3CF9FAF4F70F1F1F1F1EAE
:100470001F0F162424040200000080C0E0E0E0E02A
:10048000E0E0E0E0E0E020C02020C0E0F0F0F0702C
:10049000E0C000000000000006010F1F1F3FFFFF2B
:1004A000FFFF3F3F3F3F3C39FAF4F7CF1F1F1F1EAE
:1004B0001F0F16242C100000000080C0E0E0E0E0D8
:1004C000E0E0E0E0E0E020C02020C0E0F0F0F070EC
:1004D000E0C000000000000006010F1F1FFFFFFF2B
:1004E000FF3F3F3F3F3F3CF9FAF4F70F1F1F1F1E2E
:1004F0001F0F06040C10000000000000C0E070F0A8
:10050000F0F0E0C02020C020E0E0E0E0E0E0E0E04B
:10051000E0E0C08000000002042424160F1F1E1F0C
:100520001F1F0FF7F4FAF93C3F3F3F3F3FFFFFFF2C
:10053000FF1F1F0F0106000000000000C0E070F068
:10054000F0F0E0C02020C020E0E0E0E0E0E0E0E00B
:10055000E0E0C08000000000102C24160F1F1E1FBA
:100560001F1FCFF7F4FA393C3F3F3F3FFFFFFFFF2C
:100570003F1F1F0F0106000000000000C0E070F0E8
:10058000F0F0E0C02020C020E0E0E0E0E0E0E0E0CB
:10059000E0E0C08000000000100C04060F1F1E1FCA
:1005A0001F1F0FF7F4FAF93C3F3F3F3F3FFFFFFFAC
:1005B000FF1F1F0F0106000808FFFF7E7E3C3C184E
:1005C0001818183C3C7E7EFFFF101000804040C091
:1005D000C0C0C0C0C0F8E4C0408080000100000F6F
:1005E000FB8B0B0DFF870B0303030300804040C010
:1005F000C0C0C0C0C0F8E4C0408080000100000F4F
:100600001BEB8B0D1FE78B0303030300804040C0EF
:10061000C0C0C0C0C0F8E4C040808000010000EF4E
:100620009B0B0BED9F070B03030303808040C0E48B
:10063000F8C0C0C0C0C0C040408000030303030B2B
:1006400087FF0D0B8BFB0F00000100808040C0E492
:10065000F8C0C0C0C0C0C040408000030303038B8B
:10066000E71F0D8BEB1B0F00000100808040C0E4F2
:10067000F8C0C0C0C0C0C040408000030303030BEB
:10068000079FED0B0B9BEF000001000808002418EA
:10069000423C81423C3C42813C42182400201000F4
:1006A000000000000000000000000000000000004A
:1006B00000000000808000000000008080800000BA
:1006C000F0F8FCF4F4F4FCFCFCF4F4F4FCFCFCF4B2
:1006D000F4F4FA73877C7F7F7F7F7F7F3E1F00006B
:1006E000000000000000000000000000000000000A
:1006F00000000000000000000000000000000000FA
:1007000080C0E0A0A0A0E0E0E0A0A0A0E0E0E0A029
:10071000A0A0D0983CE4F8F8F8F8F8FCF4FC00004D
:1007200000000000000000000000000000000000C9
:10073000000000008080000080C0F0F0B070000079
:10074000F0F8FCF4F4F4FCFCFCF4F4F4FCFCFCF431
:10075000F4F4FA7387FCFFFFFFFFF7E3C1800000AA
:100760008080800000000000808000000000000009
:100770000000000000000000000000000000000079
:100780001F3E7F7F7F7F7F7F7C8773FAF4F4F4FCCA
:10079000FCFCF4F4F4FCFCFCF4F4F4FCF8F00000D1
:1007A0000000000000000000000000000000000049
:1007B0000000000000000000000000000000000039
:1007C000FCF4FCF8F8F8F8F8E43C98D0A0A0A0E01D
:1007D000E0E0A0A0A0E0E0E0A0A0A0E0C0800000D9
:1007E00070B0F0F0C08000008080000000000000C9
:1007F00000000000000000000000000000000000F9
:1008000080C1E3F7FFFFFFFFFC8773FAF4F4F4FC09
:10081000FCFCF4F4F4FCFCFCF4F4F4FCF8F000044C
:1008200008030F0F03101000001C24489020408E76
:100830009FFF9B0E088870000020202010110A8C5A
:100840007D1F718F00000000000000000000000EFE
:100850009FFF9B0E08887000001010100808088F7A
:100860007F1F718F00000000000000000000000EDC
:100870009FFF9B0E08887000002020201010088F1A
:100880007F1F79932428300000000000000E9FFF96
:100890009B0E08887000001010100808088F7F1F3A
:1008A000718F00000000000000000000000E9FFF9C
:1008B0009B8E08887000000808080404088F7F1FBA
:1008C0007C880912120C007088080E9BFF9F8E40D6
:1008D000209048241C00000000008F711F7D8C0AAE
:1008E000111020202000007088080E9BFF9F0E0032
:1008F000000000000000000000008F711F7F8F08C3
:10090000080810101000007088080E9BFF9F0E0052
:100910000000000000000030282493791F7F8F081A
:100920001010202020000000007088080E9BFF9F00
:100930000E00000000000000000000008F711F7F0B
:100940008F08080810101000007088088E9BFF9F09
:100950000E000000000000000C121209887C1F7FAE
:100960008F0804040808081010070915121C2040FD
:10097000000040201C12150907E090A84838040226
:10098000000002043848A890E010100040C0404029
:10099000404040404040E0C04080800000FFF010F8
:1009A00010101010F0FC03030303030040C040408C
:1009B000404040404040E0C040808000001FF0F0D8
:1009C0001010101010FCE3030303030000000000EC
:1009D00000E01F5E5A7C5C40C0C0000000000000C8
:1009E00010FFF011F1FF0101010100000000000003
:1009F00000E01F5E5A7C5C40C00000000000000068
:100A000010FFF011F1FF0101010000808040C0E003
:100A10004040404040404040C040000303030303C7
:100A2000FCF01010101010F0FF0000808040C0E0BB
:100A30004040404040404040C0400003030303E3C7
:100A4000FC1010101010F0F01F000000C0C0405C3F
:100A50007C5A5E1FE000000000000000010101015F
:100A6000FFF111F0FF1000000000000000C0405C2A
:100A70007C5A5E1FE0000000000000000001010140
:100A8000FFF111F0FF10000000000004080F0F0933
:100A90000909090F0F00FEFEFEFEFEFEFEFEFEFE31
:100AA000FEFEFEFEFEFE7E7EFEFEFEFEFEFEFEFE66
:100AB000FEFEFEFEFEFEFEFCF806FEFEFEFEFEFE56
:100AC000FEFEFEFEF0F0F0F0F0F0F0F0F0F0F0F0EE
:100AD000F0F0F0F0F0F0F0F0F0F0F0F0F0F0FEFEFA
:100AE000FEFEFEFEFEFEFEFEFEFEFEFEFEFEFE7EA6
:100AF0001EC6E08E3E7EFEC6D692BAAABAAA92D68C
:100B0000467E7E3EBEBEBE9EDEDEDEDEDEDEDEDE9D
:100B1000DEDE9E3E0000FFFFFFFFFFFFFFFEC0C0C6
:100B2000C0F8F8C0C0C0F8F8F9F9FFFFFFFFFFFFF9
:100B3000FFFFFFFF7F3FBF9FC3D8DFDFDFDFDFDFC8
:100B4000DFDFDFDFDFDF9FBF3F3F3F7F7F7FFFFFD5
:100B5000FFFFFFFFFFFFFFFFFFFFFFE3000000E3DA
:100B6000FFFFFFFFFFFFFFFFFFFFFFFF3F8FE3FCE4
:100B7000FFFFFFFFFFFEFEFEFEFCFDFDFCFEFEFE96
:100B8000FEFFFFFFFFFFFFFFFFFFFFFFFFFFFFFF76
:100B9000FFFFFF000000F7F7F7F7F7E7EFEFEFEFE2
:100BA000EFEFE7F7F7F7F7F7F7F7F7F7F7F7F3FBF5
:100BB000FBF9FCFEFEFFFFFFFFFFFFFFFFFFFF7FD4
:100BC0001FCFE7F7F3F9FCFEFFFFFFFFFFFEFEFE7E
:100BD000FCFDFBF3E7EFDF3F7FFFFFFFFF7F7F3F82
:100BE000BFBF9FDFDFCFEFE7F7F3F9FCFEFFFFFFAB
:100BF000FFFFFFFFFFFFFFFFFFFFFFFFFFFFFFFF05
:100C0000FFFFFFFFFFFFFFFF7F7F3FBF9FDFCFCFD4
:100C1000E7F7F3F800001F1F1FFFFFFFFFFFFFFFB5
:100C2000FFFFFFFFFFFFFFFFFFFFFFFFFFFFFFFFD4
:100C3000FFFFFFFFFFFFFFFFFFFFFFFFFFFF01FEC3
:100C4000FFFFFFFFFFFFFF9F07079FFFFFFFFFFF64
:100C5000FFFFFFFFFFFFFFFFFEF0863EFEFFFFFFEF
:100C6000FFFFFFFFFFFFFFFFFFFFFF7F7F7F7F3F54
:100C7000BFBF9FDFDFCFEFEFE7F7F7F7F3FBFB7BBC
:100C8000391D1D1D1DBD3C3EFEFFFFFFFFFFFFFF89
:100C9000FFFFFFFF0000F0F0F0FFFFFFFFFFFFFF8F
:100CA000FFFFFFFFFFFFFFFFFFFFFFFFFFFFFFFF54
:100CB000FFFFFFFFFFFFFFFFFFFFFFFFFFFFFCC383
:100CC0001FFFFFFFFBF1E0F1C0C0F1E0F1FBFFFF10
:100CD000FFFFFFFFFFFFFFFFFFFFFF00FF7F3F9FC3
:100CE000CFEFF7F3FBF9FDFDFCFEFEFEFFFFFFFF7C
:100CF000FFFFFFFFFFFFFFFFFFF9F3E7EFEFE7F075
:100D00001808000000030100073FFFFFFFFFFFFF7F
:100D1000FFFFFFFF0000FBFBFBFBFBFDFEFEFEFEFB
:100D2000FEFEFEFEFEFEFEFCFDFDFDFBFBFBFBFBF7
:100D3000FBF3F7F7F7F7F7E7EFEFEFEFEFEFEFCFB3
:100D4000DED8B3AF9F3F3F7FFFFFFFFFFFFFFFFFF7
:100D5000FFFFFF7F7F7F3F9FCFE7FBF8FDFEFFFF99
:100D6000FFFFFFFFFFFFFFFFFFFFFFFFFFFFFFFF93
:100D7000FFFFFFFFFFFFFFFFFFFFFFFFFFFFFFFF83
:100D8000F87060602080E0E0F0FCFFFFFFFFFFFFF5
:100D9000FFFFFFFF0000FFFFFFFFFFFFFFFFFFFF61
:100DA000FF7F3F1F0F0F0F0F0F0F0F0F0F1F3F3F43
:100DB0001F0F1F1F3F7FFFFFFFFFFFFFFFFFFFFF13
:100DC000FFFFFFFFFF00FFFEFEFEFCFDFDFDFDFD42
:100DD000FCFEFEFEFFFFF8E39F3FFFFFFFFFFFFF6C
:100DE000FFFFFFFF7F9FDF6FEF6FDF9F7FFFFFFF43
:100DF000FFFFFFFFFFFFFFFFFFFFFFFFFFFFFFFF03
:100E0000FFFFFFFFFFFFFFFFFFFFFFFFFFFFFFFFF2
:100E1000FFFFFFFF00007F7F7F7F7F7F7F7F7F79E6
:100E20007E7E606060787878787878786060607EC0
:100E30007C7C7C7C7C7E7F7F7F7F7F7F7F3F1F5F92
:100E40006F6773797C7E7F7F7F7F7F7F7F7F7F7FF0
:100E50007F7F7F7F7F7F7F7F7F7E7C71674F1F3F9C
:100E60007F7F7F7F7E09731775176B197E7F7F7F6A
:100E70007F7F7F7F7F7F7F7F7F7F7F7F7F7F7F7F82
:100E80007F7F7F7F7F7F7F7F7F7F7F7F7F7F7F7F72
:100E90007F7F7F7F00000000000000000000000056
:100EA0000000808080808080808080808080808042
:100EB0008080808080808080808080808080808032
:100EC0000000000000000000000000000000000022
:100ED0000000000000000000000000000000000012
:100EE0000000000000000000000000000000000002
:100EF00000000000000000000000000000000000F2
:100F000000000000000000000000000000000000E1
:100F100000000000000000000000000000000000D1
:100F20000000FF00000000000000000000000000C2
:100F3000000000000000000000000000000000FFB2
:100F400000000000000000000000000000000000A1
:100F50000000000000000000000000000000000091
:100F60000000000000000000000000000000000081
:100F70000000000000000000000000000000000071
:100F80000000000000000000000000000000000061
:100F90000000000000000000000000000000000051
:100FA00000000302020202020202020202FE00002C
:100FB0000000000000FE020202020202020202031E
:100FC0000000FE0202725252DE0000FE0202E22225
:100FD000223E0000FE02FE80FE02FE0000FE02E64F
:100FE00048902040FE02FE0000FE020202020202C1
:100FF000FE000000000000000000000000000000F3
:1010000000000000000000000000000000000000E0
:1010100000000000000000000000000000000000D0
:10102000000000000000000000000000001F101081
:1010300010101010101F0000000000000000000041
:1010400000003F20202725253D00003F20202724A9
:10105000243C00003F203E023E203F00003F203F56
:10106000000001023D203F00003F202020202020E2
:101070003F00000000000000000000000000000031
:101080000000000000000000000000000000000060
:101090000000000000000000000000000000000050
:1010A0000000F01020408000000000000080402080
:1010B00010F0000000000000000000000000000030
:1010C0000000000000000000000000000000000020
:1010D0000000000000000000000000000000000010
:1010E0000000000000000000000000000000000000
:1010F00000000000000000000000000000000000F0
:1011000000000000000000000000000000000000DF
:1011100000000000000000000000000000000000CF
:101120000000FF00FE04081122444422110804FEBE
:1011300000FF0000FF0101010101FF0000FF01F3BA
:1011400024489020FF01FF0000FF018F08649209EE
:101150000507000000FF0101B9A9A9EF0000030580
:10116000091224C808C82412090503000000000061
:10117000000000000000000000000000000000006F
:10118000000000000000000000000000000000005F
:10119000000000000000000000000000000000004F
:1011A00000001F101F000000000000000000001FD2
:1011B000101F00001F10101010101F00001F101F24
:1011C000000000011E101F00001F101F0102040973
:1011D00012141800001F10101312121E000000003D
:1011E0000000001F101F00000000000000000000B1
:1011F00000000000000000000000000000000000EF
:1012000000000000000000000000000000000000DE
:1012100000000000000000000000000000000000CE
:1012200000000000000000000000000000000000BE
:1012300000000000000000000000000000000000AE
:10124000000000000000000000000000000000009E
:10125000000000000000000000000000000000008E
:10126000000000000000000000000000000000007E
:10127000000000000000000000000000000000006E
:10128000000000000000000000000000000000005E
:10129000000000000000000000003E5B4F5B3E3E8F
:1012A0006B4F6B3E1C3E7C3E1C183C7E3C181C5712
:1012B0007D571C1C5E7F5E1C00183C1800FFE7C3B6
:1012C000E7FF0018241800FFE7DBE7FF30483A0685
:1012D0000E2629792926407F050507407F05253FF1
:1012E0005A3CE73C5A7F3E1C1C08081C1C3E7F14DD
:1012F000227F22145F5F005F5F06097F017F006627
:1013000089956A606060606094A2FFA29408047E80
:10131000040810207E201008082A1C08081C2A082F
:10132000081E101010100C1E0C1E0C30383E3830E9
:10133000060E3E0E06000000000000005F000000E8
:1013400007000700147F147F14242A7F2A12231316
:1013500008646236495620500008070300001C222A
:1013600041000041221C002A1C7F1C2A08083E085C
:10137000080080703000080808080800006060005D
:1013800020100804023E5149453E00427F40007251
:10139000494949462141494D331814127F102745C8
:1013A0004545393C4A4949314121110907364949E6
:1013B0004936464949291E00001400000040340007
:1013C00000000814224114141414140041221408BB
:1013D00002015909063E415D594E7C1211127C7F73
:1013E000494949363E414141227F4141413E7F4981
:1013F0004949417F090909013E414151737F08086C
:10140000087F00417F41002040413F017F081422B6
:10141000417F404040407F021C027F7F0408107FD4
:101420003E4141413E7F090909063E4151215E7F0F
:1014300009192946264949493203017F01033F40E2
:1014400040403F1F2040201F3F4038403F6314086A
:10145000146303047804036159494D43007F4141FB
:10146000410204081020004141417F0402010204AE
:101470004040404040000307080020545478407F1B
:10148000284444383844444428384444287F385455
:1014900054541800087E090218A4A49C787F0804FC
:1014A000047800447D40002040403D007F102844E7
:1014B0000000417F40007C047804787C08040478B4
:1014C0003844444438FC1824241818242418FC7C7C
:1014D00008040408485454542404043F44243C4061
:1014E00040207C1C2040201C3C4030403C442810C4
:1014F00028444C9090907C4464544C4400083641FD
:1015000000000077000000413608000201020402DA
:101510003C2623263C1EA1A161123A4040207A3885
:1015200054545559215555794121545478412155E8
:1015300054784020545579400C1E5272123955553A
:101540005559395454545939555454580000457C10
:10155000410002457D420001457C40F0292429F0EC
:10156000F0282528F07C545545002054547C547CA8
:101570000A097F4932494949323248484832324A99
:101580004848303A4141217A3A42402078009DA0B3
:10159000A07D39444444393D4040403D3C24FF2433
:1015A00024487E4943662B2FFC2F2BFF0929F62068
:1015B000C0887E090320545479410000447D4130A5
:1015C00048484A32384040227A007A0A0A727D0D31
:1015D00019317D2629292F28262929292630484DE9
:1015E0004020380808080808080808382F10C8AC38
:1015F000BA2F102834FA00007B000008142A1422A5
:1016000022142A14089500220095AA005500AAAABF
:1016100055AA55AA000000FF00101010FF00141476
:1016200014FF001010FF00FF1010F010F01414143D
:10163000FC001414F700FF0000FF00FF1414F40472
:10164000FC141417101F10101F101F1414141F0067
:10165000101010F0000000001F101010101F1010CC
:101660001010F010000000FF1010101010101010DB
:1016700010FF10000000FF140000FF00FF00001F1B
:1016800010170000FC04F414141710171414F404B9
:10169000F40000FF00F714141414141414F700F7E6
:1016A000141414171410101F101F141414F4141011
:1016B00010F010F000001F101F0000001F140000A9
:1016C00000FC140000F010F01010FF10FF141414B0
:1016D000FF141010101F00000000F010FFFFFFFFAC
:1016E000FFF0F0F0F0F0FFFFFF0000000000FFFF50
:1016F0000F0F0F0F0F38444438447C2A2A3E147EC3
:1017000002020606027E027E0263554941633844A6
:10171000443C04407E201E2006027E020299A5E77A
:10172000A5991C2A492A1C4C7201724C304A4D4D15
:10173000303048784830BC625A463D3E49494900FD
:101740007E0101017E2A2A2A2A2A44445F44444019
:10175000514A444040444A51400000FF0103E080A8
:10176000FF000008086B6B083612362436060F0996
:101770000F06000018180000001010003040FF0194
:1017800001001F01011E00191D1712003C3C3C3CCA
:1017900000000000000102040810204080080B0037
:1017A00002020201000904000001020200000524F7
:1017B000001001052401010104240206052406008D
:1017C000010705810310004009040100020A00001E
:1017D00000070502024000000705830240000004E4
:1017E00003090412010002EF020140412336800088
:1017F000010102030141726475696E6F204C4C4314
:101800000041726475626F790000AF2811241FBE19
:10181000CFEFDAE0DEBFCDBF11E0A0E0B1E0E4E958
:10182000F3E502C005900D92A23EB107D9F727E07B
:10183000A2EEB1E001C01D92AE36B207E1F71CE0A6
:10184000C6E0DCE004C02197FE010E94BD29C5303E
:10185000D107C9F70E946B180C94C8290C9400009A
:10186000CF92DF92EF92FF920F931F93CF93DF936C
:101870006C017A018B01C0E0D0E0CE15DF0589F064
:10188000D8016D918D01D601ED91FC910190F0810F
:10189000E02DC6010995892B11F47E0102C0219625
:1018A000ECCFC701DF91CF911F910F91FF90EF9087
:1018B000DF90CF9008953FB7F89480918A0290917D
:1018C0008B02A0918C02B0918D0226B5A89B05C019
:1018D0002F3F19F00196A11DB11D3FBFBA2FA92FAF
:1018E000982F8827820F911DA11DB11DBC01CD012C
:1018F00042E0660F771F881F991F4A95D1F7089518
:1019000008950E94C3298F929F92AF92BF92CF9267
:10191000DF92EF92FF926B017C010E945B0C4B0106
:101920005C01C114D104E104F104F1F00E945B0CEC
:10193000DC01CB0188199909AA09BB09883E9340AB
:10194000A105B10570F321E0C21AD108E108F10840
:1019500088EE880E83E0981EA11CB11CC114D1042E
:10196000E104F10419F7DDCFFF90EF90DF90CF9005
:10197000BF90AF909F908F9008951F920F920FB6D7
:101980000F9211242F933F938F939F93AF93BF9305
:101990008091E2019091E301A091E401B091E50111
:1019A0003091890223E0230F2D3720F40196A11DE9
:1019B000B11D05C026E8230F0296A11DB11D20937D
:1019C00089028093E2019093E301A093E401B09334
:1019D000E50180918A0290918B02A0918C02B091D6
:1019E0008D020196A11DB11D80938A0290938B02F6
:1019F000A0938C02B0938D02BF91AF919F918F9174
:101A00003F912F910F900FBE0F901F9018954F92FE
:101A10005F926F927F928F929F92AF92BF92CF927E
:101A2000DF92EF92FF920F931F93CF93DF9300D03B
:101A300000D0CDB7DEB749012C2DA02EB12CDC0192
:101A4000AA0DBB1D1A161B060CF0B3C180389105F8
:101A50000CF0AFC1FB01EE0DF11D1E161F060CF0C0
:101A6000A8C1603471050CF0A4C14115510509F4F9
:101A7000A0C1FB0177FF04C0EE27FF27E61BF70B91
:101A80003E2F3770732EFB0177FD379633E0F595C7
:101A9000E7953A95E1F73E2F77FF07C0772029F0C9
:101AA0003FEF3E0F68E06719762E97FF05C0EE27DF
:101AB000FF27E81BF90B02C0E0E0F0E0A038B10519
:101AC00024F060E8F62EF81A01C0F02EFE1A632FFB
:101AD000032E000C770B3F3F1CF4A62FA09501C0EE
:101AE000A0E011E0BE2DB77009F410E0E694E69492
:101AF000E694E10E6E0D711D693071051CF068E011
:101B0000E62EE31AEA1A3A0F60E83603800D911DBB
:101B100011248E0F9F1FA09FE00DF11D11244E0F69
:101B20005F1F61E070E0072C02C0660F771F0A9408
:101B3000E2F7233009F4FCC098F4213009F4AEC078
:101B4000223009F036C12FEF269F8001279F100D0C
:101B50001124009510951C830B835C80E30E27C035
:101B60002A3F29F02B3F09F024C1E30E83C0E30E86
:101B70004EC0FA01EC0DFD1DE491E69F4001E79F88
:101B8000900C11249A82898237FD04C02C91202365
:101B9000822A8C92711014C0EFEFCE1ADE0A1196D1
:101BA000CF1438F33F5F4A0D5B1D80589F4F3E15A1
:101BB00009F4FFC0DC01AE56BD4FC12CD12CF0CFD3
:101BC000373054F7FD01E058FF4F208125219A80DE
:101BD00029292083E1CFFA01E00FF11FE491E69F6C
:101BE0006001E79FD00C1124DA82C98237FD03C05F
:101BF0002C91C22ACC92711013C00F5F1F4F119607
:101C00000F1548F33F5F4A0D5B1D80589F4F3E15EF
:101C100009F4CFC0DC01AE56BD4F00E010E0F0CFBC
:101C200037305CF7FD01E058FF4FD0802A812D2925
:101C30002083E3CFFA01EC0DFD1DE491E69FD00176
:101C4000E79FB00D1124BA83A98337FD05C0A09585
:101C5000F8012081A223A083711015C0FFEFCF1AD5
:101C6000DF0A0F5F1F4FCF1428F33F5F4A0D5B1D44
:101C700080589F4F3E1509F49CC08C010E561D4F95
:101C8000C12CD12CF0CF37304CF7F801E058FF4F82
:101C90002A812095A0812A232083E0CFD401AE0F92
:101CA000BF1FE30E3E1509F484C0FC01EE56FD4F44
:101CB0004F01C12CD12CCF1498F5FD01EC0DFD1D69
:101CC000E491E69F8001E79F100D11240095109587
:101CD0001C830B83FA01EC0DFD1DE491E69F2001AE
:101CE000E79F500C11245A82498237FD05C0F40148
:101CF00020810223402A4082772059F037304CF46B
:101D0000F401E058FF4F10812C8121231A81212BEF
:101D10002083FFEFCF1ADF0A2FEF821A920ACBCF70
:101D20003F5F4A0D5B1DAA0DBB1D80589F4FBACF68
:101D3000CF2CD12CE40FF51FDC01AE56BD4FAC010A
:101D40004E5E5C4F00E810E00C191D09AC18BD0890
:101D5000AA0CBB1C6F2C2E2DCF93DF93EA0185902C
:101D6000C590772059F0869E4001C69E60013730AD
:101D70002CF49881D0949D219929999333233AF09A
:101D80009C91C0949C2198299D930C94C80E119607
:101D9000FA9429F7EA9451F0F62C33951124EA0DC0
:101DA000F11DA00FB11DC00FD11DD9CFDF91CF9173
:101DB00011240F900F900F900F90DF91CF911F91F2
:101DC0000F91FF90EF90DF90CF90BF90AF909F90DA
:101DD0008F907F906F905F904F900895CF92DF9299
:101DE000EF920F93CF93DF934115510569F1FA01FB
:101DF00004913196E4904E5F5F4F2223F9F0C02F9B
:101E0000D0E0AE2DA695A695A695EA2FF0E0A1E02C
:101E1000B0E03E2D377011F4A0E0B0E0AE0FBF1F70
:101E2000CA9F6001CB9FD00CDA9FD00C11242C9D4F
:101E3000F0012D9DF00D11244E0F5F1F2AEFC22ED1
:101E400020E030E00E94070DDF91CF910F91EF90DD
:101E5000DF90CF9008952D9A0895BC0180E090E026
:101E60000C94830C8FB12CB193B130E02095309558
:101E700020743327A90123E0559547952A95E1F76A
:101E8000292F30E0209530952071332735952795FF
:101E900035952795242B8095807F822B089583B7D5
:101EA000817F83BF83B7816083BF889583B78E7F2F
:101EB00083BF08958EBD00000DB407FEFDCF0895C9
:101EC000E5E9F7E190E1969FD001A0781124A80FF1
:101ED0006770E60FF11D8491AE56BD4F442321F08B
:101EE000EC91E82BEC930895E82FE0958C918E23EC
:101EF0008C9308952F923F924F925F926F927F92B0
:101F00008F929F92AF92BF92CF92DF92EF92FF9209
:101F10000F931F93CF93DF93CDB7DEB727970FB6FD
:101F2000F894DEBF0FBECDBFFC016A3069F4248D8A
:101F3000808D918D38E0239F800D911D1124918F0C
:101F4000808F178A168AA6C06D3009F4A3C09F83BC
:101F50008E83348C238D2983328D3A83608C718CEF
:101F6000E688F78880E8E816F104C4F0AE81BF8106
:101F70005C962C915C97422F50E056968D919C91E7
:101F80005797B6E02B9F800D911D1124EE81FF81A4
:101F9000978B868B258D211167C07CC0F0E46F166E
:101FA000710424F7C70125E0329E800D911D112494
:101FB00018161906DCF6432C512CC30138E0339E69
:101FC000800D911D11241816190684F685E0689F6E
:101FD000800111240B561D4E20E0F801249025307D
:101FE00009F4212C430158E020FC02C0398101C0D2
:101FF0003A8131110BC0F9818A81F81307C0269408
:102000005150840C951C5111EFCF25C067018C2DC8
:102010008E198315A0F754018A2D88198315B8F4F9
:1020200090E8C916D10478F4A0E4AA16B10458F4D3
:10203000432FB501C6012C833B835D830E94600F53
:102040005D813B812C81BFEFAB1ABB0AE5CFEFEF7F
:10205000CE1ADE0ADCCF2F5FE40CF51C0F5F1F4F9A
:10206000263009F0BACF82CF6AEF64039001659FF2
:10207000300D112420583F4F281739075CF4AE81EA
:10208000BF81ED91FC9111970190F081E02D6AE004
:10209000CD01099581E090E027960FB6F894DEBF58
:1020A0000FBECDBFDF91CF911F910F91FF90EF90A9
:1020B000DF90CF90BF90AF909F908F907F906F9068
:1020C0005F904F903F902F9008954F925F926F9244
:1020D0007F928F929F92AF92BF92CF92DF92EF92B8
:1020E000FF920F931F93CF93DF93CDB7DEB7659722
:1020F0000FB6F894DEBF0FBECDBF488B598B6A8BED
:102100007B8B8C8B9D8B86E0E4EDF6E0DE011196F7
:1021100001900D928A95E1F786E0FE013196DE018D
:10212000179601900D928A95E1F7A888B9884A8997
:102130005B896D892F81388589859A85EB857C85BA
:10214000FC8945018F0E911C2815390554F52E0F79
:10215000311DA216B3062CF59A01260F311D8217E8
:102160009307FCF4870F911D48175907D4F4809109
:10217000E90681110CC081E08093E9068091DE06BA
:102180009091DF0602979093DF068093DE068091A0
:10219000DE069091DF06181619061CF081E0809388
:1021A000ED061D861E861F86A7EEB1E06E018DE04E
:1021B000C80ED11C760120E030E080E03A01660EC6
:1021C000711C91E0F901E951FE4F6285611119C05E
:1021D0000D911C91119712966D917C9113974480EB
:1021E0005580081519056CF4040D111DA016B106D3
:1021F00044F4661577052CF4650D711D46175707D5
:102200008CF1245F3F4F1C96EFEFEE1AFE0A24324A
:102210003105C1F620E030E091E0F60141916F0117
:10222000442321F0F901E951FE4F9287245F3F4F8B
:102230002432310591F765960FB6F894DEBF0FBED4
:10224000CDBFDF91CF911F910F91FF90EF90DF9065
:10225000CF90BF90AF909F908F907F906F905F9046
:102260004F9008956681860FF7019083CACF2F9211
:102270003F924F925F926F927F928F929F92AF9216
:10228000BF92CF92DF92EF92FF920F931F93CF9363
:10229000DF93CDB7DEB7A0970FB6F894DEBF0FBEC1
:1022A000CDBF198E1A8E1B8E2BE032E045E152E035
:1022B0008E01075E1F4FB8018CE0782E96E0892EC4
:1022C00099249394E0E8AE2EB12CF901DE01119629
:1022D000872D01900D928A95E1F7D9018D919C91FE
:1022E000FA01349760803196508032964080DA014E
:1022F000EC91E11164C0E4EDF6E0DE011D96F82CEE
:1023000001900D92FA94E1F7FE013D96DE0153969D
:10231000F82C01900D92FA94E1F7EB80FC80BE81DD
:10232000B8A3AB89BC89ED89FE892F88388C3C8E97
:10233000CD803C2C6C01C30CD11CAC15BD050CF040
:1023400077C0A20DB11D8A179B070CF071C0D70191
:10235000C8A0AC0DB11DEA17FB070CF069C0DC8CFE
:10236000ED0DF11DEE16FF060CF062C0E091E906DE
:10237000E1110CC09092E906E091DE06F091DF06D3
:10238000E619F109F093DF06E093DE06E091DE0640
:10239000F091DF061E161F0614F09092ED06DB0189
:1023A0009C929A8389836F8258864A861B86FE0197
:1023B0003196D901872D01900D928A95E1F7245F1E
:1023C0003F4F445F5F4F6F5F7F4FF2E02F323F0719
:1023D00009F07BCF2091E60180E090E031E0D80168
:1023E0004D918D01442329F0FC01E55FFD4F3287BB
:1023F00020E00C968432910591F72093E601A09697
:102400000FB6F894DEBF0FBECDBFDF91CF911F9105
:102410000F91FF90EF90DF90CF90BF90AF909F9083
:102420008F907F906F905F904F903F902F90089586
:10243000E52DF0E0E817F90734F4D501AE1BBF0B2A
:102440008A179B071CF0FB019082ABCF442019F048
:102450008E0F9F1FA6CF8E1B9F0BA3CFFC018091D9
:102460009102811103C08FEF9FEF08959FB7F894F9
:1024700082E08093E9002091F20030E0121613060A
:1024800014F421E030E02115310559F0289884E654
:10249000809390028091F10080838091F2008823E4
:1024A00019F09FBFC90108958BE68093E800F9CF2A
:1024B000CF93DF931F92CDB7DEB76983DC01ED9137
:1024C000FC910280F381E02D41E050E0BE016F5F9E
:1024D0007F4F09950F90DF91CF91089583E080930E
:1024E000E9008091F200882319F08AE38093E800E4
:1024F0000895CF93DF931F92CDB7DEB7FC0184859B
:10250000958597FD05C02FEF3FEF358724870BC0DA
:10251000CE0101960E942E12019719F4898190E054
:1025200002C08FEF9FEF0F90DF91CF9108950F932F
:102530001F93CF93DF931F92CDB7DEB78C01FC01C1
:102540008485958597FF0EC0CE0101960E942E12BC
:10255000019719F4298130E002C02FEF3FEFF80115
:1025600035872487F801848595850F90DF91CF9179
:102570001F910F9108957F928F929F92AF92BF9279
:10258000CF92DF92EF92FF920F931F93CF93DF933F
:102590006C015B017A0180910801882309F46BC00A
:1025A00080919102882309F466C080918F0280FF98
:1025B00005C08091E00082608093E000E70110E0B8
:1025C0000AEF83E0982E90E4792E2AE3822E20975A
:1025D00009F448C08FB7F8949092E9009091E80010
:1025E00095FF06C09091F200272D291B922F01C064
:1025F00090E08FBF91110AC0015009F43CC061E026
:1026000070E080E090E00E94830CE1CF292F30E061
:10261000C217D3070CF49C2F8FB7F8949092E9005F
:102620002091E80025FF1CC0292F30E0C21BD30BEE
:10263000F501915020F041914093F100FACFA20EA4
:10264000B31E112319F08092E80009C09091E800B0
:1026500095FD06C08092E80011E0209709F010E097
:102660008FBFB5CF1111B6CF5D9884E680938E02EF
:102670001E141F0444F081E090E0F60193838283EE
:1026800080E090E001C0C701DF91CF911F910F91D1
:10269000FF90EF90DF90CF90BF90AF909F908F9082
:1026A0007F9008952F923F924F925F926F927F9208
:1026B0008F929F92AF92BF92CF92DF92EF92FF9252
:1026C0000F931F93CF93DF93CDB7DEB728970FB645
:1026D000F894DEBF0FBECDBF5A01822E912C9C0113
:1026E000280D391D37FDC4C0803891050CF0C0C0DD
:1026F0009B01200F311D37FDBBC0603471050CF00C
:10270000B7C0AB0177FF04C044275527461B570BC2
:10271000477055279B0177FF02C0295F3F4FE3E0D9
:1027200035952795EA95E1F777FF08C021503109E3
:1027300068E070E0DB01A41BB50BAD01602F66956E
:102740006695669570E0077011F06F5F7F4FDB0153
:10275000A20FB31FBA83A98339017694762C66241D
:1027600077946794680E791EE12CF12C00E010E05C
:102770002301B0E84B0E511C68E070E0DB01A41BA4
:10278000B50BBC83AB8369817A812617370709F4BF
:102790006FC02830310509F46BC02F3FBFEF3B07F6
:1027A0000CF45BC0B201600F711FDB01AE56BD4F70
:1027B000BE83AD83D801A60DB71DAE56BD4F6C01CB
:1027C00060E070E0681579050CF047C0E0E8CE16CF
:1027D000D10409F442C0D7FC34C02F3FFFEF3F07BC
:1027E00009F442C0FB01EE0DFF1DEA0DFB1DE49153
:1027F000042E01C0EE0F0A94EAF73C90E329EC9313
:1028000041155105F1F027303105D9F0FB01EE0DEE
:10281000FF1DEA0DFB1DE4912E2E312CF1010B80E2
:1028200002C0F595E7950A94E2F7F887EF83ED810A
:10283000FE813080EF81F885E3291F01ED81FE8163
:1028400020826F5F7F4FED81FE813196FE83ED83A5
:10285000FFEFCF1ADF0A1196B5CF2F5F3F4F005819
:102860001F4FE80CF91C8FCF4115510579F6E9CFC0
:1028700028960FB6F894DEBF0FBECDBFDF91CF9183
:102880001F910F91FF90EF90DF90CF90BF90AF908E
:102890009F908F907F906F905F904F903F902F9080
:1028A00008952091F806282329F49091F70698239B
:1028B00081E009F480E00895CF92DF92EF92FF92D9
:1028C0000F931F93CF93DF931F92CDB7DEB77C0199
:1028D0008B01040F111D6B0177FF14C0C12CD12C8B
:1028E00011C0C616D706ACF480E8E816F10438F437
:1028F000422FB601C70129830E94600F29818FEF03
:10290000C81AD80AB801013411055CF360E470E01C
:10291000E8CF0F90DF91CF911F910F91FF90EF9033
:10292000DF90CF900895009769F0FC01019000209E
:10293000E9F73197AF01481B590BBC018EEE96E0C9
:102940000C94300C80E090E008950C94931420E0F7
:1029500082E992E0B22FB111BFEFFC010024B193E4
:10296000B193B193B1930394D1F7089590919202EA
:102970009EBD811110929202E3E9F2E022E030E084
:102980009081811110820DB407FEFDCF9EBD2F5F97
:102990003F4F3196213094E0390791F70DB407FE8F
:1029A000FDCF08959C01240F311D1216130674F5F6
:1029B000803891055CF5FC0197FF02C0E0E0F0E093
:1029C0002138310514F020E830E02E1BAB014770B0
:1029D000552781E001C0880F4A95EAF777FF02C0CA
:1029E000695F7F4F93E0759567959A95E1F77695C6
:1029F000762F662777956795E60FF71FEE56FD4F02
:102A0000215020F09081982B9193FACF08958091D6
:102A1000100781110DC082E080930C0784E0809341
:102A20000D0710920F0710920E0781E08093100798
:102A30008CE097E00895FC018485958597FD0BC097
:102A40009FB7F89482E08093E9008091F2009FBFE5
:102A500090E0019608959FB7F89482E08093E90092
:102A60008091F2009FBF90E0089540916C075091D3
:102A70006D0720916A0730916B0742175307B4F432
:102A80009091E8009570E1F39091E80092FD19C0F3
:102A90008093F10080916C0790916D0701968F7380
:102AA0009927892B19F48EEF8093E80080916C07A9
:102AB00090916D07019690936D0780936C0781E06C
:102AC000089580E00895DF92EF92FF920F931F9395
:102AD000CF93DF93D82E8A017B01E40EF51EEB0124
:102AE000CE15DF0571F0D7FE03C0FE01849101C051
:102AF00088810E94351521968111F2CF8FEF9FEFCB
:102B000001C0C801DF91CF911F910F91FF90EF900D
:102B1000DF900895615030F02091F100FC01208396
:102B20000196F8CF289884E68093900208950F9339
:102B30001F93CF93DF931F92CDB7DEB782E08983D7
:102B400042E450E06DE977E180E80E9463150E945D
:102B50000715DC0112960D911C91139701151105B3
:102B600069F0D801ED91FC910280F381E02DBE0166
:102B70006F5F7F4FC801099597FF07C089810F904C
:102B8000DF91CF911F910F910895F8010085118574
:102B9000E5CF1F920F920FB60F9211248F939F9340
:102BA0008091E1009091E100937F9093E10083FF99
:102BB0000FC01092E90091E09093EB001092EC00AE
:102BC00092E39093ED001092910298E09093F000C0
:102BD00082FF20C093E09093E9009091F200992346
:102BE00019F09AE39093E80090918E02992339F0BE
:102BF00090918E02915090938E02992389F1909139
:102C00009002992339F09091900291509093900204
:102C1000992341F184FF10C08091E2008E7E816093
:102C20008093E2008091E1008F7E8093E1008091AB
:102C30008F028E7E806111C080FF16C08091E200FD
:102C40008E7E80618093E2008091E1008E7E809391
:102C5000E10080918F028E7E816080938F0204C09C
:102C60005D9ACDCF289AD6CF9F918F910F900FBEAE
:102C70000F901F9018951F920F920FB60F9211246C
:102C8000CF92DF92EF92FF920F931F932F933F9378
:102C90004F935F936F937F938F939F93AF93BF9364
:102CA000EF93FF93CF93DF93CDB7DEB76C97DEBF83
:102CB000CDBF1092E9008091E80083FFEDC168E08C
:102CC000CE0145960E948A1582EF8093E8008D8997
:102CD00087FF05C09091E80090FFFCCF03C09EEFF6
:102CE0009093E800982F907609F0C6C09E892F89AE
:102CF000188D91110CC0803829F480916907809358
:102D0000F10002C01092F1001092F10048C1422F70
:102D100050E0512B913051F4811141C141305105A6
:102D200009F03DC1809169078D7F0BC0933061F43C
:102D3000811135C14130510509F031C180916907D8
:102D40008260809369072BC1953041F48091E8003F
:102D500080FFFCCF20682093E30021C1963009F06A
:102D60005FC0EB8CFC8C1092E90010926D07109202
:102D70006C07123091F510926B0710926A070E944F
:102D8000971599E0BE016F5F7F4FDB01E92F1D9220
:102D9000EA95E9F799831A8391E09E8390EA9887F0
:102DA0009AEF998720916C0730916D07275F3F4F0D
:102DB0003C832B838D831092E90010926D07109253
:102DC0006C07F0926B07E0926A0749E050E080E000
:102DD0000E9463150E949715E2C0F0926B07E09283
:102DE0006A070E940715DC011296ED90FC9013977C
:102DF000E114F10409F4C0C0D701ED91FC91048005
:102E0000F581E02DBE016B5E7F4FC70109950097EC
:102E100019F00CF0C4C0C7C0F701E084F184E8CF1A
:102E2000973009F4C0C0983021F481E08093F1001C
:102E3000B6C0993009F0B3C0837009F0B4C0E6E4BD
:102E4000F1E081E021E036E39081992361F0809305
:102E5000E9002093EB0091919093EC003093ED000A
:102E60008F5F873089F78EE78093EA001092EA003F
:102E70008F898093910293C08B8D9C8D1092E90075
:102E800010926D0710926C0790936B0780936A07FE
:102E9000898D811156C08E899D89913A59F481326C
:102EA00009F081C047E050E061E071E080E00E94FD
:102EB000631575C0913209F076C0833289F4888D2C
:102EC00090E0982F88272F89822BA0E0B0E0809394
:102ED000090190930A01A0930B01B0930C015FC00C
:102EE000803269F48091E80082FFFCCF67E081E0E6
:102EF00091E00E948A158BEF8093E80006C0823231
:102F000009F04DC08F89809308018091680788235C
:102F100019F0EEEFFAE002C0E0E0F8E08091010184
:102F200090910201A0910301B0910401803B944073
:102F3000A105B10509F07BC08091080180FF93C015
:102F400076C00E940715DC0112960D911C91139713
:102F50000115110541F1D801ED91FC910190F0812D
:102F6000E02DBE016B5E7F4FC8010995811117C02E
:102F7000F80100851185ECCF113009F44EC01330F3
:102F800091F48F89882309F445C0823081F440E8A8
:102F900067E081E098E10E943429882321F08EEFD8
:102FA0008093E80079C081E28093EB0075C08130A6
:102FB00029F440E86BE085EF97E1EDCF833099F796
:102FC0000E940715DC011296ED90FC9013978E017C
:102FD0000F5F1F4F6801E114F10479F0D701ED9103
:102FE000FC910680F781E02DB801C7010995080F13
:102FF000111DF701E084F184EECFD8011C92F60197
:1030000001900020E9F73197BF016C197D0940E07C
:10301000C601C1CF6FED77E102C063EE77E16115C4
:10302000710509F2FB01449150E080E840CF0FB6F2
:10303000F894A89580916000886180936000109258
:1030400060000FBEA895EE3F2AE0F20739F08091AC
:10305000FE0A9091FF0A91838083A1CF1092FF0A0C
:103060001092FE0A9CCFEE3F8AE0F80731F0808193
:1030700091819093FF0A8093FE0A87E797E79183F7
:1030800080839BE088E10FB6F894A8958093600058
:103090000FBE9093600083CF6C960FB6F894DEBF9E
:1030A0000FBECDBFDF91CF91FF91EF91BF91AF9157
:1030B0009F918F917F916F915F914F913F912F9150
:1030C0001F910F91FF90EF90DF90CF900F900FBE68
:1030D0000F901F901895CF93DF93CDB7DEB7A597CC
:1030E0000FB6F894DEBF0FBECDBF789484B5826072
:1030F00084BD84B5816084BD85B5826085BD85B59C
:10310000816085BD80916E00816080936E00109219
:103110008100809181008260809381008091810094
:103120008160809381008091800081608093800025
:1031300080919100826080939100809191008160E4
:1031400080939100809190008160809390008091A5
:10315000C10084608093C1008091C100826080932F
:10316000C1008091C10081608093C1008091C30043
:1031700081608093C3008091C00082608093C00012
:103180008091C20081608093C20080917A00846047
:1031900080937A0080917A00826080937A00809197
:1031A0007A00816080937A0080917A0080688093B1
:1031B0007A00109291021092690710928F0280910A
:1031C000D70081608093D70080EA8093D80089B5CA
:1031D000806189BD89B5826089BD09B400FEFDCFDB
:1031E00061E070E080E090E00E94830C8091D80064
:1031F0008F7C80618093D8008091E000807F8093F5
:10320000E0008091E1008E7E8093E1008DE080936C
:10321000E200559A209AEEEFFFE7859194918B3F5B
:103220009C4D19F481E08093680781EC80937C00C9
:1032300085B1806F85B9249884B1866E84B95E9A11
:103240005F988AB1806D8AB9769A6E9881B3806FE3
:1032500081BB899880B38D7080BB80E58CBD81E097
:103260008DBD85E090E00E942D0F5F9A85E090E093
:103270000E942D0F5E985C980CE511E07DE0F72E22
:10328000F00EF80184910E945A0F0F5F1F4FF01249
:10329000F8CF5C9A81E88093640081E080936500B8
:1032A00000E014E080E00E945A0F01501109D1F7AC
:1032B0000E94320F87FF1FC05C9885EA0E945A0F58
:1032C0005C9A2E982F982D9880916400806280934C
:1032D00064000E944F0FFDCF2D980E94320F84781A
:1032E000843871F00E94320F8471843131F188EC9E
:1032F00090E00E942D0F0E94320F82FDEDCF3AC068
:103300000E942B0F88EC90E00E942D0F2F9882E0F6
:1033100090E00E9471298F3F29F06FEF82E090E0EA
:103320000E94792984EF91E00E942D0F2F9A0E942C
:10333000320F84788438D9F3D5CF0E942B0F88ECD4
:1033400090E00E942D0F2E9882E090E00E9471295B
:10335000882329F060E082E090E00E94792984EFE0
:1033600091E00E942D0F2E9A0E94320F84718431B9
:10337000D9F3BDCF0E942B0F82E090E00E9471290B
:10338000882331F03E9A3F9A81E080932F0204C057
:1033900010922F023E983F982E986EEEE62EFF2454
:1033A000FA940E94320F86FF04C02E9A2F9A2D9A0B
:1033B00040C0FCEFEF16FFEFFF0619F42E9A2F988E
:1033C00006C028E1E216F10411F42F9A2D980E940C
:1033D000A71400E128E54CEA50E0B70184E190E051
:1033E0000E94521380E00E94B6148BE190E00E948C
:1033F0002D0F30EFE3163FEFF30621F48AEF90E054
:103400000E942D0F4FEFE41AF40A59E1E516F1047A
:1034100041F68CEB92E00E942D0F0E942B0FE09161
:10342000F206F091F3060190F081E02D82EF96E034
:10343000099582E390E00E942D0F0E94320F8111C6
:10344000F8CF0E94A7141092070710920607109257
:1034500005071092040750E8A52EB12C36E0432E44
:10346000512C40E4242E312C2FB7F8948091E201A6
:103470009091E301A091E401B091E5012FBF40914B
:10348000FE065091FF0660910007709101072091A0
:103490000207222349F02091FA06821B809303073A
:1034A000109202070C94EE2684179507A607B7071B
:1034B00048F4481B423010F40C94EE260E944F0F43
:1034C0000C94EE2611E0109302078093FA06909375
:1034D000FB06A093FC06B093FD062091F906820F2F
:1034E000911DA11DB11D8093FE069093FF06A09330
:1034F0000007B09301078091F5069091F6060196BA
:103500009093F6068093F5060E94A7141092070781
:103510001092060710920507109204078091F70693
:103520008093F8060E94320F8093F70680918802FC
:10353000823009F42CC138F4882391F0813009F4E9
:103540003FC00C94EB26843011F40C94992610F4AF
:103550000C943226893011F40C9469260C94EB26D5
:1035600000E420E845E95EE060E070E080E090E0A3
:103570000E9452130E94320F83FF06C010938802EC
:1035800088EC90E00E942D0F88E290E09093050770
:103590008093040788E390E09093070780930607E1
:1035A0008CE491E00E94A51410928702109286028A
:1035B0001092850210928402109283020C94EB26E2
:1035C00080910001811102C089E0EEC000E420E892
:1035D00045E95AE060E070E080E090E00E9452131C
:1035E00080E20E945114009181021091820288238E
:1035F00019F00150110907C080E40E94511488237A
:1036000031F00F5F1F4F109382020093810280916F
:103610008702882399F080918602882379F080912F
:103620008502882359F080918402882339F08091A3
:103630008302882319F081E0809380022091800228
:103640008091810290918202222351F0863091056F
:1036500014F40C94F82610928202109281020BC08E
:1036600085309105C4F797FF06C084E090E0909301
:103670008202809381028091810290918202880F60
:10368000991FFC01EE0FFF1FE35FFE4F00811181C8
:10369000880F991FFC01E15FFE4FC080D180F09040
:1036A0007F02DD241127FF2011F40C940027809164
:1036B000F5069091F60667E070E00E94A929892B33
:1036C00011F00C9400274801F4E08F0E911C0815AE
:1036D000190549F021E044E0B601C8010E945C14DC
:1036E0000F5F1F4FF4CF11E0F126F0927F0288E0C8
:1036F0000E945114882311F40C94EB2682E08093ED
:10370000880210937D0210937102109365028CE081
:10371000E3E7F2E0ABE0B2E001900D928A95E1F7C9
:103720008CE0E7E6F2E0A7E1B2E001900D928A9525
:10373000E1F78CE0EBE5F2E0A3E2B2E001900D925C
:103740008A95E1F71093590210934D0210934102AC
:103750008CE0EFE4F2E0A7EEB1E001900D928A95E3
:10376000E1F78CE0E3E4F2E0A3EFB1E001900D9229
:103770008A95E1F78CE0E7E3F2E0AFEFB1E001908A
:103780000D928A95E1F71092E6010C94942640E898
:103790006FE370E080E090E00E94D21480E10E942C
:1037A0005114882329F083E0809388020C94EB263F
:1037B0000E94320F82FF02C012E401C010E20E9498
:1037C000320F86FD12E50E94320F85FD1CE40E9437
:1037D000320F8474843421F482E58DA312E402C094
:1037E00090E29DA30E94320F8472843219F4ECE4BB
:1037F000EDA312E48091360281113DC081E090E09A
:103800009093D5068093D40680E390E09093D706FA
:103810008093D60690E19093D8069093D90681E0E4
:103820008093DA0620E32093DB061092DD0622E384
:1038300030E03093DF062093DE061092E00610920F
:10384000E1069093E2068093E3069EE19093E406FE
:103850008093E5061092E6061092E7061092E806BD
:103860001092E9061092EA068093EB061092EC069D
:103870001092ED065BC188E00E945114882309F480
:1038800041C020E030E087EE91E04CE0FC01DE0139
:103890001196542F01900D925A95E1F7FC01528533
:1038A000552349F16091E5068091DA0690E06111B7
:1038B00040964091DB0650E0475F5F4F9A838983D3
:1038C0005C834B8384E08D838E8382E08F8381E0F1
:1038D000888719866A871B868CE0829FD001839F28
:1038E000B00D1124A951BE4FFE01319601900D92E9
:1038F0008A95E1F707C02F5F3F4F0C96F2E08B30BF
:103900009F0721F6A7EE8A2EA1E09A2EB1EF6B2E2B
:10391000B1E07B2E63017401F701808191816281A6
:103920007381F60132972081F6013081311104C094
:103930004BE253E00E94EE0EFCE0EF0EF11C2CE097
:10394000C20ED11C3BE0E31632E0F30629F790915A
:10395000E9068091DA066091DB06992311F40C9454
:1039600060289091F50690FF02C00C946028F090BA
:10397000DD0670E090E0E9E6F1E00491EAE6F1E0CE
:10398000E490FF2011F40C941227402F50E02E2DCC
:10399000269526952695A22FB0E021E030E0EE2D69
:1039A000E77011F420E030E02A0F3B1F429FD00166
:1039B000439FB00D529FB00D1124FA9EA001FB9EB3
:1039C000500D112445595E4FFBEFCF2E20E030E023
:1039D0000E94070D8DE390E0909305078093040704
:1039E00010920707109206072091000130E040E096
:1039F00050E019A2CE0181967C01CA01B9012AE0EA
:103A000030E040E050E00E948729605DF70162935A
:103A10007F01211531054105510579F7CF010E943C
:103A200093144091DE0660E070E080E090E00E9438
:103A3000D2149091E906992329F08091E1068F5FD5
:103A40008093E1068091E106853011F40C941627ED
:103A50002091DA06822F90E09093D5068093D406C9
:103A60008091DB06482F50E05093D7064093D6064E
:103A7000123411F00C941E279091E606992311F44C
:103A80000C944227FDA1FC3411F40C944C27F23520
:103A900011F40C944C279091E60691110C94712727
:103AA0009091E70691110C9483278091EA06811189
:103AB0000C94C8271AA21BA21CA2BE016E5D7F4FE8
:103AC000AB011CE001E0F401DE011196812F0190B1
:103AD0000D928A95E1F7F40180819181F30133978A
:103AE000A0813296B081F3012081222311F40C943D
:103AF0003C28FCE08F0E911C2CE0620E711C4F5F85
:103B00005F4F3BE0831632E09306E9F680E090E0F9
:103B100021E0FB013191BF01332321F0FC01E95188
:103B2000FE4F22870C968432910599F7809100010F
:103B3000811103C089E00C942D269091ED06992304
:103B400051F091E090938802109236028150809358
:103B500000010C94EB2680918102909182028230C8
:103B6000910509F447C344F4009789F08130910529
:103B700009F47AC10C94EB268430910509F4D6C57A
:103B80000CF496C4059709F422C70C94EB26809197
:103B9000360281112FC080E78093BF0680E38093B7
:103BA000C00680E18093C10682E390E09093C30653
:103BB0008093C20684E08093C4068FE08093C5069C
:103BC00083E08093C6061092C7061092C806109232
:103BD000C90680E790E0909331028093300285E33C
:103BE00090E0909333028093320286E08093340217
:103BF0008BE0CCC58091C706882309F45BC0809117
:103C0000E601811154C081E08093E6012BE032E0AF
:103C100010E060E070E00CE094E0F92E48E0E42E63
:103C200055E0D52EEAE0CE2EF901DE011196802F67
:103C300001900D928A95E1F7F9018285882369F157
:103C40006230710551F1E091C8068091BF06412FA5
:103C500050E090E0EE2329F04096840F951FF0E0AD
:103C600003C0841B950BF1E04091C00650E04B5F10
:103C70005F4F9A8389835C834B83FD82EE82DF8270
:103C8000C886F987EA871B86FE013196D901802F05
:103C900001900D928A95E1F71C5D6F5F7F4F245F65
:103CA0003F4FF2E02F323F0709F0BECF03C081E063
:103CB0008093E6010BE012E085E1E82E82E0F82E29
:103CC000F8018081918162817381F70132972081AF
:103CD000F7013081311104C04BE85AE00E94EE0E2A
:103CE000045F1F4FFCE0EF0EF11C22E00F321207C1
:103CF00039F76091C00670E08091BF062091C4063C
:103D000049E859E090E00E94EE0E8091C206482FEB
:103D100060E070E0F501E81BF109CF010E94D214C8
:103D20008091C0062091BF0630E0422F30933102CF
:103D30002093300290E0682F9093330280933202F8
:103D4000509131027091330280913402909135028A
:103D50000E9465102091C2063091C306281B3109CC
:103D60003093C3062093C2068091F5069091F60623
:103D7000B2010E94A929892B09F068C08091C70669
:103D80009091C806882319F18091C906992331F0D2
:103D9000882311F083E007C082E005C0882311F07A
:103DA00087E001C086E08093C4068091C5068150FB
:103DB0008093C5068C3019F491E09093C906811167
:103DC00043C01092C7068FE08093C5063DC0809126
:103DD000BF062091C6069923B9F0820F8093BF06D3
:103DE0006091C10690E0A501461B5109FA01E21B52
:103DF000F1098E179F07A4F080E8861B8093BF0609
:103E00001092C80681E00AC0821B8093BF06281763
:103E100038F01092BF0681E08093C8068093C706F1
:103E20009091C8068091C406992339F0813019F425
:103E30001092C40609C081E005C0853011F484E009
:103E400001C085E08093C4060E9437118091C206AC
:103E50009091C306181619060CF4BDC781E0809333
:103E6000880280938702FBC620913602211136C05A
:103E700020E72093B10620E32093B20620E12093AF
:103E8000B30642E350E05093B5064093B40635E0E4
:103E90003093B6069093B8068093B7068AE0809375
:103EA000B90683E08093BA061092BB061092BC0656
:103EB00081E08093BD061092BE0640E750E050932B
:103EC00031024093300240E350E05093330240937C
:103ED00032022093340220933502BFC18091BB0689
:103EE000882309F466C08091E60181115FC081E0FA
:103EF0008093E601D090BC068091B10690E09C01D1
:103F0000205F3F4F4097DD2019F0C22E932E02C054
:103F1000C82E992E8091B20690E0E0900B02F090AE
:103F20000C0200910D0210910E02B0910F02A091AF
:103F30001002709111026091120250911302609070
:103F4000140220E030E0EBE0F2E077247394828406
:103F5000882081F02115310569F4109215027092C4
:103F600016026D2C50E08C01EC2CF92C65E075E00C
:103F7000A0E1B0E12F5F3F4F3C9642E0EF32F40703
:103F800031F7E0920B02F0920C0200930D021093B5
:103F90000E02B0930F02A09310027093110260936F
:103FA0001202509313026092140203C081E08093C6
:103FB000E6010BE012E0B5E1EB2EB2E0FB2EF801DA
:103FC0008081918162817381F70132972081F701AD
:103FD0003081311104C047E659E00E94EE0E045FC3
:103FE0001F4FFCE0EF0EF11C22E00F32120739F7F1
:103FF0006091B20670E08091B1062091B60645E26C
:1040000058E090E00E94EE0E8091B406482F60E0E8
:1040100070E0F501E81BF109CF010E94D2148091F4
:10402000B2062091B10630E0422F30933102209346
:10403000300290E0682F90933302809332025091C7
:1040400031027091330280913402909135020E94C6
:1040500065102091B4063091B506281B31093093C4
:10406000B5062093B4068091F5069091F606B2014C
:104070000E94A929892B09F0AFC08091BB069091BD
:10408000BC06882311F12091B6068091B9069923C8
:1040900041F0233021F4853010F494E009C093E01E
:1040A00007C0283021F4853010F499E001C098E071
:1040B0009093B60681508093B90681118BC01092FF
:1040C000BB068AE08093B90685C08091BD06209129
:1040D000BA06882381F19091BE068091B206992399
:1040E00011F0820F01C0821B8093B2064091B3068B
:1040F0003091B206C101841B9109821B9109632F83
:1041000070E08617970754F480E4841B8093B2060E
:1041100081E08093BB061092BE063FC02317E8F1F2
:104120002F5F2093B2061092BB0681E08093BE06FB
:104130001092BD0632C08091B1069923F1F0820F32
:104140008093B1066091B30690E0A501461B51092A
:10415000FA01E21BF1098E179F07FCF080E8861B2D
:104160008093B1061092BC0681E08093BD068093D7
:10417000BE0685E08093B60610C0821B8093B10610
:10418000281758F01092B10681E08093BC06809306
:10419000BD068093BE061092B6069091BC06809133
:1041A000B606992371F0833018F02FEF3FEF04C06B
:1041B00081110BC021E030E03093B8062093B706A0
:1041C00004C0883090F78530A9F39091B706890F25
:1041D0008093B6060E9437118091B4069091B5067F
:1041E000181619060CF4F7C581E0809388028093B5
:1041F000860235C580913602811132C080E68093F7
:10420000A60680E38093A70690E29093A80622E397
:1042100030E03093AA062093A90683E08093AB0692
:1042200084E18093AC0681E08093AD061092AE06E7
:104230001092AF068093B00620E630E03093310252
:104240002093300220E330E0309333022093320297
:104250009093340290E19093350280933602BBC56F
:104260008091AE06882309F44BC08091E60181114C
:1042700044C081E08093E6012BE032E060E07CE026
:1042800014E005E0F901DE011196872F01900D92EF
:104290008A95E1F7F9018285882341F1E091AF0623
:1042A0008091A606462F50E090E0EE2321F0809604
:1042B000840F951F02C0841B950B4091A70650E008
:1042C0004B5F5F4F9A8389835C834B831D831E837F
:1042D0000F8308871986EA871B86FE013196D9016C
:1042E000872F01900D928A95E1F7685F245F3F4F19
:1042F000F2E02F323F0731F603C081E08093E60100
:104300000BE012E0A5E1EA2EA2E0FA2EF80180818E
:10431000918162817381F70132972081F7013081A9
:10432000311104C04FE158E00E94EE0E045F1F4FB0
:10433000FCE0EF0EF11C22E00F32120739F760911A
:10434000A70670E08091A6062091AB064DE956E0E5
:1043500090E00E94EE0E8091A906482F60E070E088
:10436000F501E81BF109CF010E94D2148091A70644
:104370002091A60630E0422F309331022093300284
:1043800090E0682F90933302809332025091310273
:104390007091330280913402909135020E94651031
:1043A0002091A9063091AA06281B31093093AA064C
:1043B0002093A9068091F5069091F606B2010E941D
:1043C000A929892B09F066C08091AE064091AF06FD
:1043D0008823A1F0442311F082E001C085E080939E
:1043E000AB068091AC0681508093AC06811150C021
:1043F0001092AE0684E18093AC064AC09091B0065C
:104400008091A7062091AD06992311F0820F01C07B
:10441000821B8093A7068091A70690E03091A806A2
:10442000532F5695B101651B71098617970734F410
:1044300081E08093AE068093B00616C0B101621B86
:1044400071096817790784F4442339F01092AF0694
:1044500080E8831B8093A60605C081E08093AF06A9
:104460001092A6061092B0069091AF068091B00609
:10447000992339F0811103C01092AB0609C081E085
:1044800005C0811102C083E001C084E08093AB06C7
:104490000E9437118091A9069091AA061816190654
:1044A0000CF499C481E08093880280938402D7C37E
:1044B0008091360281111DC080E780939C0680E3C5
:1044C00080939D0680E180939E0622E330E0309346
:1044D000A00620939F0693E09093A10695E0909309
:1044E000A20696E09093A3061092A4061092A50649
:1044F0008EC28091A406882309F44DC08091E60104
:10450000811146C081E08093E6012BE032E040E07B
:1045100050E06CE078E015E006E0F901DE0111966C
:10452000862F01900D928A95E1F7F9018285882303
:1045300031F14115510519F5A091A50680919C0610
:1045400090E0AA2319F04096B0E001C0B1E0E091FC
:104550009D06F0E035969A838983FC83EB837D8307
:104560007E831F830887B987AA871B86FE01319641
:10457000ABE0B2E0862F01900D928A95E1F74F5F94
:104580005F4F245F3F4FF2E02F323F0731F603C009
:1045900081E08093E6010BE012E0F5E1EF2EF2E01E
:1045A000FF2EF8018081918162817381F70132973A
:1045B0002081F7013081311104C04BE856E00E94A0
:1045C000EE0E045F1F4FFCE0EF0EF11C22E00F32F5
:1045D000120739F760919D0670E080919C0620914A
:1045E000A10649EC55E090E00E94EE0E80919F06F6
:1045F000482F60E070E0F501E81BF109CF010E944F
:10460000D21480919D0620919C0630E0422F309379
:1046100031022093300290E0682F90933302809310
:1046200032025091310270913302809134029091A4
:1046300035020E94651020919F063091A006281B2C
:1046400031093093A00620939F068091F506909142
:10465000F606B2010E94A929892B09F059C0809160
:10466000A4069091A5068823A1F0992311F082E079
:1046700001C085E08093A1068091A20681508093BD
:10468000A206811143C01092A40685E08093A20681
:104690003DC080919C062091A3069923B9F0820F1A
:1046A00080939C0660919E0690E0A501461B5109EF
:1046B000FA01E21BF1098E179F07A4F080E8861B20
:1046C00080939C061092A50681E00AC0821B80930D
:1046D0009C06281738F010929C0681E08093A5066E
:1046E0008093A4069091A5068091A106992339F0A4
:1046F000813019F41092A10609C081E005C0843010
:1047000011F483E001C084E08093A1060E94371178
:1047100080919F069091A006181619060CF45BC3B1
:1047200081E0809388028093850299C2809136024D
:10473000811130C080E68093CA0680E38093CB0667
:1047400080E28093CC0682E390E09093CE06809343
:10475000CD0683E08093CF068AE08093D00685E083
:104760008093D1061092D2061092D30680E690E094
:1047700090933102809330028AE390E09093330269
:10478000809332028BE18093340280E18093350282
:1047900081E063CD8091D206882309F44DC08091D9
:1047A000E601811146C081E08093E6012BE032E012
:1047B00040E050E06CE078E015E006E0F901DE0151
:1047C0001196862F01900D928A95E1F7F901828565
:1047D000882331F14115510519F5A091D306809137
:1047E000CA0690E0AA2319F08096B0E001C0B1E0BB
:1047F000E091CB06F0E035969A838983FC83EB83C6
:104800007D837E831F830887B987AA871B86FE0165
:104810003196ABE0B2E0862F01900D928A95E1F7D8
:104820004F5F5F4F245F3F4FF2E02F323F0731F67B
:1048300003C081E08093E6010BE012E0E5E1EE2E9B
:10484000E2E0FE2EF8018081918162817381F7019F
:1048500032972081F7013081311104C047EB55E0D8
:104860000E94EE0E045F1F4FFCE0EF0EF11C22E0F1
:104870000F32120739F76091CB0670E08091CA06BB
:104880002091CF0645E354E090E00E94EE0E809127
:10489000CD06482F60E070E0F501E81BF109CF017B
:1048A0000E94D2148091CB062091CA0630E0422F9C
:1048B000309331022093300290E0682F90933302BE
:1048C0008093320250913102709133028091340210
:1048D000909135020E9465102091CD063091CE0650
:1048E000281B31093093CE062093CD068091F50622
:1048F0009091F606B2010E94A929892B09F059C0AE
:104900008091D2069091D3068823A1F0992311F0CB
:1049100082E001C085E08093CF068091D00681506F
:104920008093D006811143C01092D2068AE0809312
:10493000D0063DC08091CA062091D1069923B9F0D6
:10494000820F8093CA066091CC0690E0A501461BB9
:104950005109FA01E21BF1098E179F07A4F080E8C4
:10496000861B8093CA061092D30681E00AC0821B80
:104970008093CA06281738F01092CA0681E0809307
:10498000D3068093D2069091D3068091CF069923C7
:1049900039F0813019F41092CF0609C081E005C0CA
:1049A000843011F483E001C084E08093CF060E943C
:1049B00037118091CD069091CE06181619060CF489
:1049C0000AC281E0809388028093830248C180916B
:1049D000360281112BC080E78093920680E380939A
:1049E000930680E1809394062CE330E030939606A2
:1049F0002093950693E09093970694E19093980600
:104A000095E09093990610929A0610929B0620E7E3
:104A100030E0309331022093300220E330E03093D5
:104A200033022093320280933402B0CE80919A06F2
:104A3000882309F44CC08091E601811145C081E0D2
:104A40008093E6012BE032E040E050E01CE000E221
:104A500090E1F92E6AE0E62E76E0D72EF901DE012C
:104A60001196812F01900D928A95E1F7F9018285C7
:104A7000882309F141155105F1F4E0919B068091DD
:104A8000920690E0E11140966091930670E09A835F
:104A900089837C836B830D83FE82EF82D88619869F
:104AA000EA871B86FE013196ABE0B2E0812F0190D0
:104AB0000D928A95E1F74F5F5F4F245F3F4FF2E021
:104AC0002F323F0759F603C081E08093E6010BE0E7
:104AD00012E085E1E82E82E0F82EF80180819181D4
:104AE00062817381F70132972081F70130813111A2
:104AF00004C043EF53E00E94EE0E045F1F4FFCE042
:104B0000EF0EF11C22E00F32120739F76091930685
:104B100070E0809192062091970641E353E090E087
:104B20000E94EE0E80919506482F60E070E0F5013E
:104B3000E81BF109CF010E94D214809193062091C5
:104B4000920630E0422F309331022093300290E001
:104B5000682F90933302809332025091310270910A
:104B6000330280913402909135020E9465102091A9
:104B7000950630919606281B3109309396062093AE
:104B800095068091F5069091F606B2010E94A9293A
:104B9000892B09F059C080919A0690919B06882331
:104BA000A1F0992311F082E001C085E0809397067F
:104BB00080919806815080939806811143C010928D
:104BC0009A0684E1809398063DC0809192062091D8
:104BD00099069923B9F0820F80939206609194060A
:104BE00090E0A501461B5109FA01E21BF1098E175D
:104BF0009F07A4F080E8861B8093920610929B0684
:104C000081E00AC0821B80939206281738F0109228
:104C1000920681E080939B0680939A0690919B0672
:104C200080919706992339F0813019F410929706F4
:104C300009C081E005C0843011F483E001C084E044
:104C4000809397060E943711809195069091960661
:104C5000181619060CF4BFC084E0809388021092E5
:104C60003602B9C048E26BE170E08CE290E00E944D
:104C7000D21448E266E270E08CE290E00E94D21426
:104C800021E04CE06BE170E08CE290E00E945C146B
:104C900021E04CE06BE170E083E590E00E945C1461
:104CA0008EE290E090930507809304078DE190E0F9
:104CB00090930707809306078BE591E00E94A51467
:104CC00080E10E945114882309F485C082E00C948D
:104CD000D41B88E290E0909305078093040780E25C
:104CE00090E0909307078093060782E691E00E9488
:104CF000A5148AE090E0909305078093040784E36D
:104D000090E090930707809306078CE691E00E945D
:104D1000A51488E00E945114882309F45CC0109205
:104D2000880283E08093000188EC90E00E942D0FC0
:104D300052C01092050710920407109207071092B4
:104D400006078FE791E00E94A514109205071092C4
:104D500004078AE090E0909307078093060782E9B2
:104D600091E00E94A514109205071092040784E1B7
:104D700090E090930707809306078EE991E00E94E8
:104D8000A51410920507109204078EE190E090930D
:104D900007078093060784EB91E00E94A514109208
:104DA00005071092040788E290E09093070780932C
:104DB00006078CEB91E00E94A51410920507109253
:104DC000040782E390E0909307078093060780ED45
:104DD00091E00E94A51481E00E94B61480E090E06A
:104DE000892B11F40C94341A0E9400000C942E1A92
:104DF00097FD02C00C943B1B85E090E00C94371BA0
:104E0000480124E0820E911C0815190511F40C9438
:104E1000731B20E044E0B601C8010E945C140F5FE0
:104E20001F4FF2CF4BE651E00C94E41C992311F490
:104E30000C94281D1092E9060C94281D13341CF4C0
:104E4000113431F04AC01C3419F0123561F045C0FC
:104E50009091E506992319F098E09093DD0691E092
:104E60009093EA0626C09091E506992321F090914F
:104E7000DD06911103C091E09093DD0691E09093DF
:104E8000EA0627C09091E70691110C94421D91E02B
:104E90009093E6060C94421D91E09093EA063DA1A2
:104EA0003C3459F49091E506992319F098E09093D9
:104EB000DD061092E5060C944B1D4DA1423511F014
:104EC0000C944B1D3091E506311102C09093DD0624
:104ED00091E09093E5060C944B1D1092EA060C9419
:104EE0004B1D9091E506992311F094E001C09BE0E1
:104EF0009093DD0691E09093E7061092E60680938A
:104F0000DC060C94551D9091E806911117C0682F8E
:104F100070E04091DC0650E03091E406431B5109FB
:104F2000461757075CF481508093DB068091E506B5
:104F3000882311F085E028C08CE026C08F5F809325
:104F4000DB06911103C091E09093E8063091E206F0
:104F500090E0A101431B51094817590714F00C9424
:104F6000551D80E4831B8093DB061092E7061092A8
:104F7000E8061092E0068091E506882321F0109261
:104F8000DD060C94551D87E08093DD060C94551DBD
:104F90003091E5069091E3068091E0063323C9F154
:104FA000290F2093DA068F3009F59091E7069111C9
:104FB0001DC09091EC068091DD06992361F083304D
:104FC00021F482E08093DD060EC081E08093DD064F
:104FD0001092EC0608C08130A1F383E08093DD06D7
:104FE00081E08093EC061092E00603C08F5F80930F
:104FF000E0062091E2068091DA0690E0A501421BCE
:1050000051094817590714F00C945A1D80E8821B67
:105010002FC0291B2093DA068F3009F59091E706FF
:1050200091111DC09091EC068091DD06992361F0ED
:105030008A3021F489E08093DD060EC088E08093F9
:10504000DD061092EC0608C08830A1F38AE0809358
:10505000DD0681E08093EC061092E00603C08F5FCE
:105060008093E0068091DA0681110C945A1D81E04C
:105070008093DA060C945A1D2A2F30E0281739073E
:1050800034F4F501E21BF30B8E179F071CF0FA01B5
:10509000008307C0BB2319F0820F931F02C0821B3D
:1050A000930B9A838983A887BA871B86FE01319662
:1050B000D401812F01900D928A95E1F70C94791D0E
:1050C00070E02091DD0649E651E090E00E94EE0E8E
:1050D0000C94EA1C0F931F93CF93DF938C0181E014
:1050E00090E00E94712980FF32C08AE090E00E9427
:1050F00071299FEF980F9E3F50F522E330E0D801D1
:1051000057963C932E93569728E330E059963C935C
:105110002E935897CBE0D0E0D801ED91FC9101900F
:10512000F081E02D682FC8010995CE010E947129F8
:105130002196C131D10581F780E00E94B61488EE36
:1051400093E0DF91CF911F910F910C942D0FDF9180
:10515000CF911F910F91089504970C946A28E8E16C
:10516000F7E01382128288EE93E0A0E0B0E084833F
:105170009583A683B78389E291E0918380838FEF43
:105180009FEF95878487EEEEF6E0138212821186F8
:10519000128620E1238790878783108A118A128ADA
:1051A000138A148A89E391E09183808383E491E0F8
:1051B00095838483178A168A118E108E81E0828FE0
:1051C000138E848F158EE4EDF6E022E330E0338712
:1051D00022871486158687879EE1908B818B128AA1
:1051E000138A148A158A168A878B108E118EEAEC20
:1051F000F6E0348323835AE0568395E09783108644
:105200001186EFEBF6E0348323834FE0468343E0DF
:105210004783108611861286E1EBF6E03483238300
:10522000508741871286138684871586E6EAF6E062
:105230003483238344E146838783108611868287E3
:10524000ECE9F6E034832383968386E08783108637
:105250001186E2E9F6E02CE330E0348323834683D1
:105260009783108611860895CF92DF92EF92FF9276
:105270000F931F93CF93DF931F92CDB7DEB7182FF5
:10528000062FE42E862F880F8E5F99830E94351596
:1052900083E00E943515F12EC12E9981D92E8C2DD7
:1052A0008F19801798F4F601E7FE02C0849101C0BF
:1052B00080810E943515182F80E00E9435158123CA
:1052C000FFEFCF1ADF0A8111EACF01C081E00F9012
:1052D000DF91CF911F910F91FF90EF90DF90CF90D2
:1052E0000895F999FECF92BD81BDF89A992780B5AE
:1052F0000895262FF999FECF1FBA92BD81BD20BD1A
:105300000FB6F894FA9AF99A0FBE01960895A1E2A1
:105310001A2EAA1BBB1BFD010DC0AA1FBB1FEE1F2F
:10532000FF1FA217B307E407F50720F0A21BB30B7A
:10533000E40BF50B661F771F881F991F1A9469F7F6
:1053400060957095809590959B01AC01BD01CF0152
:105350000895AA1BBB1B51E107C0AA1FBB1FA617BC
:10536000B70710F0A61BB70B881F991F5A95A9F70E
:1053700080959095BC01CD010895EE0FFF1F05901B
:10538000F491E02D099481E090E0F8940C94C82900
:04539000F894FFCFBF
:105394000300E1000000000000FFFFFFFF19000A06
:1053A400003B002000230037005A00370076002815
:1053B4000040000A00000000005812BB121B1579BF
:1053C4001297126E12000000007A0F300C6A28FC4B
:1053D400FF0000AC2800C18081000000507265739A
:1053E40073204120427574746F6E0050617573654B
:1053F400640047414D45204F564552005072657335
:1054040073204120746F2052657374617274005468
:1054140068616E6B7320666F7220506C6179696E7F
:10542400670041726475626F796A616D3A0054680D
:1054340065205A6F6F2068616420746F20636C6FFD
:10544400736521004372656469747300417274204A
:10545400616E642050726F6772616D6D696E670072
:105464005A61636861726961682046616C676F752F
:025474007400C2
:00000001FF
